:100000000C9463000C948B000C948B000C940A05E8
:100010000C940A050C940A050C948B000C948B002C
:100020000C948B000C948B000C948B000C94840526
:100030000C948B000C948B000C948B000C948B0014
:100040000C94C0040C948B000C948E040C946804E3
:100050000C948B000C948B000C948B000C948B00F4
:100060000C948B000C948B000000000024002700EF
:100070002A0000000008000201000003040700003D
:1000800000000000000000000000230026002900FE
:1000900000000000250028002B00040404040404D0
:1000A0000404020202020202030303030303010227
:1000B00004081020408001020408102001020408F6
:1000C00010204506070A11241FBECFEFD8E0DEBF7F
:1000D000CDBF11E0A0E0B1E0E2EAF5E102C0059099
:1000E0000D92A035B107D9F722E0A0E5B1E001C03B
:1000F0001D92A239B207E1F710E0C2E6D0E004C0D9
:100100002197FE010E94B90AC136D107C9F70E94A2
:100110005F070C94C40A0C940000CF92DF92EF9218
:10012000FF920F931F93CF93DF936C017A018B01A2
:10013000C0E0D0E0CE15DF0581F0D8016D918D01D2
:10014000D601ED91FC910190F081E02DC601099559
:10015000892B11F02196EECF7E01C701DF91CF915F
:100160001F910F91FF90EF90DF90CF900895FC01C9
:10017000538D448D252F30E0842F90E0821B930B0C
:10018000541710F0CF96089501970895FC01918DB2
:10019000828D981761F0828DDF01A80FB11D5D96E9
:1001A0008C91928D9F5F9F73928F90E008958FEF57
:1001B0009FEF0895FC01918D828D981731F0828D0B
:1001C000E80FF11D858D90E008958FEF9FEF089562
:1001D000FC01918D228D892F90E0805C9F4F821BC6
:1001E00091098F73992708958EE991E00E94E800A4
:1001F00021E0892B09F420E0822F0895FC01848DF1
:10020000DF01A80FB11DA35ABF4F2C91848D90E040
:1002100001968F739927848FA689B7892C93A0891B
:10022000B1898C91837080648C93938D848D9813A5
:1002300006C00288F389E02D80818F7D8083089538
:10024000EF92FF920F931F93CF93DF93EC0181E026
:10025000888F9B8D8C8D981305C0E889F9898081E2
:1002600085FD26C0F62E0B8D10E00F5F1F4F0F731C
:100270001127E02E8C8DE8120CC00FB607FCFACFC8
:10028000E889F989808185FFF5CFCE010E94FE00C3
:10029000F1CF8B8DFE01E80FF11DE35AFF4FF08285
:1002A0009FB7F8940B8FEA89FB89808180620AC02E
:1002B0009FB7F894EE89FF896083E889F989808186
:1002C0008370806480839FBF81E090E0DF91CF9155
:1002D0001F910F91FF90EF900895CF93DF93EC0162
:1002E000888D8823C9F0EA89FB89808185FD05C056
:1002F000A889B9898C9186FD0FC00FB607FCF5CF90
:10030000808185FFF2CFA889B9898C9185FFEDCFD7
:10031000CE010E94FE00E7CFDF91CF91089580E0EB
:1003200090E0892B29F00E94F40081110C940000C8
:100330000895833081F028F4813099F08230A1F063
:1003400008958730A9F08830B9F08430D1F48091D5
:1003500080008F7D03C0809180008F778093800024
:10036000089584B58F7702C084B58F7D84BD0895CC
:100370008091B0008F7703C08091B0008F7D809313
:10038000B0000895CF93DF93282F30E0F901EE58A5
:10039000FF4F8491F901E255FF4FD491F901E656E0
:1003A000FF4FC491CC2391F081110E949901EC2F51
:1003B000F0E0EE0FFF1FEA57FF4FA591B491EC91CB
:1003C000ED2381E090E021F480E002C080E090E045
:1003D000DF91CF9108951F93CF93DF93282F30E0C3
:1003E000F901EE58FF4F8491F901E255FF4FD49186
:1003F000F901E656FF4FC491CC23C1F0162F8111AD
:100400000E949901EC2FF0E0EE0FFF1FE057FF4F25
:10041000A591B4919FB7F894111104C08C91D09517
:10042000D82302C0EC91DE2BDC939FBFDF91CF91EC
:100430001F910895CF93DF9390E0FC01E255FF4FA9
:100440002491FC01E656FF4F8491882361F190E0EE
:10045000880F991FFC01E859FF4FC591D491FC0109
:10046000E057FF4FA591B491611109C09FB7F8946F
:100470008881209582238883EC912E230BC06230E3
:1004800061F49FB7F8948881322F30958323888355
:10049000EC912E2B2C939FBF06C08FB7F894E88168
:1004A0002E2B28838FBFDF91CF9108951F93CF9379
:1004B000DF93182FEB0161E00E941A02209711F4DC
:1004C00060E004C0CF3FD10539F461E0812FDF91B6
:1004D000CF911F910C94EB01E12FF0E0EE58FF4F0C
:1004E000E491E330F9F048F4E130B9F0E230A1F5FD
:1004F00084B5806284BDC8BD34C0E730E9F0E8301F
:1005000019F1E43049F58091800080628093800089
:10051000D0938B00C0938A0024C084B5806884BDCA
:10052000C7BD1FC080918000806880938000D093F9
:100530008900C093880015C08091B00080688093C6
:10054000B000C093B3000DC08091B0008062809372
:10055000B000C093B40005C0C038D1050CF0B5CFD1
:10056000AFCFDF91CF911F910895CF93DF93C4E870
:10057000D2E06A8570E08C810E9456026B8570E043
:100580008D810E9456026E8188810E94EB016F81ED
:1005900089810E94EB0168858A810E94EB0169854F
:1005A0008B81DF91CF910C94EB013FB7F894809150
:1005B000960190919701A0919801B091990126B56B
:1005C000A89B05C02F3F19F00196A11DB11D3FBF8B
:1005D000BA2FA92F982F8827820F911DA11DB11D19
:1005E000BC01CD0142E0660F771F881F991F4A9515
:1005F000D1F708958F929F92AF92BF92CF92DF92E0
:10060000EF92FF926B017C010E94D5024B015C01CD
:10061000C114D104E104F104F1F00E94D502DC011F
:10062000CB0188199909AA09BB09883E9340A10505
:10063000B10570F321E0C21AD108E108F10888EE93
:10064000880E83E0981EA11CB11CC114D104E104E2
:10065000F10419F7DDCFFF90EF90DF90CF90BF90BE
:10066000AF909F908F90089520919C0130919D01B3
:100670002817390771F490919A0180919B0198177E
:1006800041F0E0919A01F0E0EF5AFE4F808190E056
:1006900008958FEF9FEF089508951F93CF93DF93F1
:1006A000DC015C968D919C915D97009739F421E077
:1006B00030E013963C932E9312973BC05196ED91E8
:1006C000FC91529750962C915097322F30951FB72E
:1006D0005E964C915E97742F727041FD6095F89410
:1006E0004081772311F0422B01C043234083EC016A
:1006F0002197F1F748E0508160FF02C0522B01C002
:1007000053235083EC012197F1F76695415099F7F7
:100710008081772319F08323808302C0282B2083D4
:100720001FBF5C968D919C915D970197F1F781E0D9
:1007300090E0DF91CF911F91089520919C0130911D
:100740009D012817390771F480919B0120919A012E
:1007500090E0805C9F4F821B910960E470E00E94F2
:10076000910A089580E090E0089520919C013091D5
:100770009D0128173907B9F490919A0180919B0146
:10078000981789F0E0919A01F0E0EF5AFE4F8081CE
:1007900020919A0130E02F5F3F4F2F733327209332
:1007A0009A0190E008958FEF9FEF0895089580E0FB
:1007B00090E00895009769F0FC0101900020E9F7AE
:1007C0003197AF01481B590BBC018EE991E00C94A5
:1007D0008D0080E090E00895CF93DF930E94DA03CC
:1007E000EC0184E291E00E94DA038C0F9D1FDF91FF
:1007F000CF9108958F929F92AF92BF920F931F93C4
:10080000CF93DF93CDB7DEB7A1970FB6F894DEBFD5
:100810000FBECDBF19A2423008F44AE08E010F5D31
:100820001F4F842E912CA12CB12CA50194010E9464
:10083000540AE62FB901CA0101501109EA3014F433
:10084000E05D01C0E95CD801EC93232B242B252B20
:1008500061F7C8010E94DA03A1960FB6F894DEBFD3
:100860000FBECDBFDF91CF911F910F91BF90AF9081
:100870009F908F900895CF92DF92EF92FF92CF9347
:10088000DF936B017C016DE28EE991E00E94200113
:10089000EC0166277727CB016C197D098E099F092A
:1008A0004AE00E94FA038C0F9D1FDF91CF91FF90C9
:1008B000EF90DF90CF900895BC01990F880B990BB2
:1008C00097FD0C943B044AE00C94FA030E94BF0A83
:1008D0001F920F920FB60F9211242F933F934F93B5
:1008E0005F936F937F938F939F93AF93BF93EF9398
:1008F000FF938EE991E00E94FE00FF91EF91BF917E
:10090000AF919F918F917F916F915F914F913F91A7
:100910002F910F900FBE0F901F9018951F920F925E
:100920000FB60F9211242F938F939F93EF93FF9302
:10093000E091AE01F091AF018081E091B401F091BE
:10094000B50182FD12C090818091B7018F5F8F73D6
:100950002091B801821751F0E091B701F0E0E25622
:10096000FE4F958F8093B70101C08081FF91EF9179
:100970009F918F912F910F900FBE0F901F90189500
:100980001F920F920FB60F9211242F933F938F93C4
:100990009F93AF93BF938091920190919301A09107
:1009A0009401B09195013091910123E0230F2D37EF
:1009B00020F40196A11DB11D05C026E8230F029663
:1009C000A11DB11D209391018093920190939301F9
:1009D000A0939401B0939501809196019091970115
:1009E000A0919801B09199010196A11DB11D80932C
:1009F000960190939701A0939801B0939901BF91AC
:100A0000AF919F918F913F912F910F900FBE0F90BB
:100A10001F9018951F920F920FB60F9211242F93CB
:100A20003F934F935F936F937F938F939F93AF9376
:100A3000BF93EF93FF93E0919C01F0919D0130975C
:100A400009F451C0968DA685B785858591FF04C0B0
:100A50009C91892329F447C09C91892309F043C0C4
:100A6000A389B4899C918589809589238C938689F3
:100A700097890197F1F7608D718DA685B7855585AA
:100A800038E020E0CB010197F1F7822F90E09595B7
:100A90008795282F4C91452309F02068315091F714
:100AA000868D81FD209580919B0190E001968F734A
:100AB000992730919A01381749F0A0919B01B0E035
:100AC000AF5ABE4F2C9380939B0103C0868D8160EB
:100AD000868F828D938D0197F1F7A389B4899C91BC
:100AE0008589892B8C93FF91EF91BF91AF919F9155
:100AF0008F917F916F915F914F913F912F910F90C7
:100B00000FBE0F901F9018951F920F920FB60F9265
:100B100011242F933F934F935F936F937F938F9302
:100B20009F93AF93BF93EF93FF938091500187FF03
:100B300005C010928500109284001BC020915001C6
:100B4000022E000C330B80915F0290E028173907CA
:100B500084F480915001082E000C990BFC01EE0FDB
:100B6000FF1F8E0F9F1FFC01E55CFD4F808186FDFE
:100B700015C0809150018F5F8093500120915001EA
:100B8000022E000C330B80915F0290E0281739078A
:100B9000C4F4809150018C3064F113C080915001F5
:100BA000082E000C990BFC01EE0FFF1F8E0F9F1FEC
:100BB000FC01E55CFD4F808160E08F730E94EB01DA
:100BC000D8CF8091840090918500049680349C4910
:100BD00018F480E49CE905C0809184009091850020
:100BE000049690938900809388008FEF8093500142
:100BF0003BC0209184003091850080915001082EE7
:100C0000000C990BFC01EE0FFF1F8E0F9F1FFC01C4
:100C1000E55CFD4F81819281820F931F9093890043
:100C20008093880080915001082E000C990BFC01E4
:100C3000EE0FFF1F8E0F9F1FFC01E55CFD4F8081B3
:100C400086FF12C080915001082E000C990BFC0108
:100C5000EE0FFF1F8E0F9F1FFC01E55CFD4F808193
:100C600061E08F730E94EB01FF91EF91BF91AF9113
:100C70009F918F917F916F915F914F913F912F91B4
:100C80000F900FBE0F901F9018951092A101109217
:100C9000A00188EE93E0A0E0B0E08093A2019093E1
:100CA000A301A093A401B093A50184E091E09093E7
:100CB0009F0180939E0185EC90E09093AB0180931F
:100CC000AA0184EC90E09093AD018093AC0180EC9C
:100CD00090E09093AF018093AE0181EC90E090930F
:100CE000B1018093B00182EC90E09093B3018093C6
:100CF000B20186EC90E09093B5018093B40110921C
:100D0000B7011092B8011092B9011092BA0196E998
:100D1000909390028BE98093910210928D02109231
:100D20008C0210928B0210928A0290938E02809312
:100D30008F0288E08093840289E0809385028AE0B4
:100D4000809386028BE08093870286E080938802FE
:100D500085E08093890261E088E00E941A0261E0E8
:100D6000809185020E941A0261E0809186020E94B1
:100D70001A0261E0809187020E941A0261E080916C
:100D800088020E941A0261E0809189020E941A0280
:100D90008EE0809382028FE08093830261E08EE098
:100DA0000E941A0260E0809183020E941A028091E0
:100DB0005F028C30A0F491E0980F90935F028093D3
:100DC0007F0290E0FC01EE0FFF1F8E0F9F1FFC01C2
:100DD000E55CFD4F88EB9BE09283818303C08FEF3E
:100DE00080937F02109263021092620288EE93E079
:100DF000A0E0B0E08093640290936502A093660245
:100E0000B093670286E191E0909361028093600263
:100E10001092770210927602109279021092780264
:100E200010927B0210927A0210927D0210927C0244
:100E300060917E026E7F6D7F60937E026695617029
:100E400081E0682783E00E94EB0161E083E00E947B
:100E50001A02E1EBF0E0E491E0937002EDE9F0E0DA
:100E6000E491F0E0EE0FFF1FE057FF4F8591949162
:100E7000909372028093710260E082E00E941A02F5
:100E800080917E0281FD04C061E082E00E94EB015E
:100E900082E080936C02E0EBF0E0E491E0936D027D
:100EA000ECE9F0E0E491F0E0EE0FFF1FEA57FF4FAE
:100EB0008591949190936F0280936E020895789437
:100EC00084B5826084BD84B5816084BD85B582604F
:100ED00085BD85B5816085BD80916E008160809300
:100EE0006E00109281008091810082608093810069
:100EF0008091810081608093810080918000816079
:100F0000809380008091B10084608093B1008091D3
:100F1000B00081608093B00080917A0084608093FB
:100F20007A0080917A00826080937A0080917A00C2
:100F3000816080937A0080917A00806880937A0043
:100F40001092C10010927B0210927A0210927902E4
:100F50001092780210927702109276028FE190E060
:100F600090937D0280937C0290916C02963108F000
:100F700058C021E030E030937702209376022DE1D3
:100F800030E030937902209378022DE030E0309306
:100F90007B0220937A0240916800983058F031E04B
:100FA0009E3008F430E021E0822F01C0880F3A958E
:100FB000EAF701C084E0842B80936800983038F011
:100FC0009E3040F0963148F020E030E008C02DE639
:100FD00030E005C02BE630E002C02CE630E0309374
:100FE000740220937302983030F481E001C0880FBE
:100FF0009A95EAF70EC0292F30E09E3018F4285059
:10100000310902C02E50310981E001C0880F2A95B4
:10101000EAF78093750280917C0290917D0201979E
:10102000F1F780917A0290917B02892B49F1E0914E
:101030009C01F0919D0182E0E036F80709F13097BC
:1010400039F0A389B4899C918589809589238C93F3
:1010500080917E028E7F80937E0210929B0110927F
:101060009A0180E692E090939D0180939C01E0912B
:101070007302F0917402908180917502892B8083B4
:10108000E091AE01F091AF0182E08083E091AA018E
:10109000F091AB011082E091AC01F091AD018FECC9
:1010A00080831092B601E091B201F091B30186E025
:1010B0008083E091B001F091B101808180618083F3
:1010C000E091B001F091B101808188608083E0916E
:1010D000B001F091B101808180688083E091B0011E
:1010E000F091B10180818F7D808380917F028C306F
:1010F00008F051C061E08CE00E941A0280917F02EA
:10110000E82FF0E09F01220F331FE20FF31FE55C91
:10111000FD4F9081907C9C60908310928002109291
:1011200081026CE00E94850A9CE0899FB001112435
:1011300040E050E09B01240F351FF901EE0FFF1F27
:101140002E0F3F1FF901E55CFD4F908196FD16C003
:101150004F5F5F4F4C30510569F781110FC01092FE
:10116000800082E0809381001092850010928400BC
:10117000B19A80916F00826080936F00E0917F024E
:10118000F0E0CF01880F991FE80FF91FE55CFD4FD4
:101190008081806480838091810208E512E0081BD1
:1011A000110987FD1395000F111F000F111F80916A
:1011B0008002C8E8D0E0C81BD10987FDD395CC0FC9
:1011C000DD1FCC0FDD1F6E010D2E000CEE08FF0899
:1011D000C801012E000CAA0BBB0B9C01AD012C1900
:1011E0003D094E095F09AAE5B0E00E94490A24EBD7
:1011F00030E040E050E00E942A0AC20ED31EE41EF6
:10120000F51E80917F028C30C8F4CC16DD062CF0E0
:10121000E801C016D1060CF4E6012297CC0FDD1FC1
:101220002FB7F89490E0FC01EE0FFF1F8E0F9F1F69
:10123000FC01E55CFD4FD283C1832FBF60ED77E0F9
:1012400080E090E00E94FA0282E880938F0280930F
:101250008E02C1E082E10E94C201D1E0892B09F433
:10126000D0E081E10E94C20111E0892B09F410E075
:1012700080E10E94C20101E0892B09F400E08D2F7A
:1012800090E00E945C0487E291E00E94DA03812FE3
:1012900090E00E945C0487E291E00E94DA03802FD4
:1012A00090E0A0E0B0E04AE0BC01CD010E94FA036A
:1012B00084E291E00E94DA038D2F812309F47DC03E
:1012C000002309F47AC080E0FF24F3949D2F91233A
:1012D00009F473C0FF2009F470C081110AC0109294
:1012E0008D0210928B0210928C0210928A020E9440
:1012F000B50282E10E94C201D1E0892B09F4D0E05D
:1013000081E10E94C20111E0892B09F410E080E123
:101310000E94C201FF24F394892B09F4F12C8BE283
:1013200091E00E94EC0380E692E00E949D03892BED
:1013300011F481E0CBCF80E692E00E94B503082F44
:10134000682F8EE991E00E94200184E291E00E94E2
:10135000DA030436F1F04CF4013621F510928D02D7
:1013600010928A02C0938C0211C0073749F00837E7
:10137000C9F4C0938C02C0938A0210928D020FC0F0
:1013800010928C0210928A02C0938D02C0938B023D
:1013900011C0C0938D02C0938A0210928C021092E9
:1013A0008B0208C010928D0210928B0210928C0258
:1013B00010928A020E94B502BCCF1123D9F0D1113C
:1013C00009C010928A02C0938B0210928D02109273
:1013D0008C0208C010928C02C0938D0210928B0276
:1013E00010928A020E94B5026EE170E080E090E007
:1013F0000E94FA0210928C0210928A02C0938D020F
:10140000C0938B020E94B5020E948F0123CF86E118
:1014100091E0909361028093600280919C01909191
:101420009D018056924071F4E0917302F091740234
:1014300090818091750280958923808310929D010F
:1014400010929C0180E391E00E94EC038FE391E015
:101450000C94EC03052E97FB1EF400940E94410AA5
:1014600057FD07D00E94540A07FC03D04EF40C9499
:10147000410A50954095309521953F4F4F4F5F4F12
:10148000089590958095709561957F4F8F4F9F4FF0
:1014900008950E94760AA59F900DB49F900DA49F79
:1014A000800D911D11240895A1E21A2EAA1BBB1BC9
:1014B000FD010DC0AA1FBB1FEE1FFF1FA217B30720
:1014C000E407F50720F0A21BB30BE40BF50B661F36
:1014D000771F881F991F1A9469F7609570958095FA
:1014E00090959B01AC01BD01CF010895A29FB00171
:1014F000B39FC001A39F700D811D1124911DB29F48
:10150000700D811D1124911D0895991B79E004C06F
:10151000991F961708F0961B881F7A95C9F7809532
:10152000089597FB072E16F4009407D077FD09D095
:101530000E94A50A07FC05D03EF4909581959F4F27
:101540000895709561957F4F0895AA1BBB1B51E1CB
:1015500007C0AA1FBB1FA617B70710F0A61BB70B23
:10156000881F991F5A95A9F780959095BC01CD01C8
:101570000895EE0FFF1F0590F491E02D099481E08E
:1015800090E0F8940C94C40A10E0C2E6D0E004C0E5
:10159000FE010E94B90A2196C336D107C9F7F89413
:0215A000FFCF7B
:1015A2000000000020018D00B7006D01E800C600B8
:1015B200DA00000000004D038D00D7034C039D03A9
:1015C200B50334030D0A00202C200073746F7000E1
:1015D200535230343A3A7E5352303428293B004C2D
:1015E2003239384E3A3A7E4C3239384E28293B004D
:107E0000112484B714BE81FFF0D085E080938100F7
:107E100082E08093C00088E18093C10086E0809377
:107E2000C20080E18093C4008EE0C9D0259A86E02C
:107E300020E33CEF91E0309385002093840096BBD3
:107E4000B09BFECF1D9AA8958150A9F7CC24DD24C4
:107E500088248394B5E0AB2EA1E19A2EF3E0BF2EE7
:107E6000A2D0813461F49FD0082FAFD0023811F036
:107E7000013811F484E001C083E08DD089C08234E0
:107E800011F484E103C0853419F485E0A6D080C0E4
:107E9000853579F488D0E82EFF2485D0082F10E0AE
:107EA000102F00270E291F29000F111F8ED06801E7
:107EB0006FC0863521F484E090D080E0DECF843638
:107EC00009F040C070D06FD0082F6DD080E0C81688
:107ED00080E7D80618F4F601B7BEE895C0E0D1E017
:107EE00062D089930C17E1F7F0E0CF16F0E7DF06D8
:107EF00018F0F601B7BEE89568D007B600FCFDCFD4
:107F0000A601A0E0B1E02C9130E011968C91119780
:107F100090E0982F8827822B932B1296FA010C0160
:107F200087BEE89511244E5F5F4FF1E0A038BF0790
:107F300051F7F601A7BEE89507B600FCFDCF97BE46
:107F4000E89526C08437B1F42ED02DD0F82E2BD052
:107F50003CD0F601EF2C8F010F5F1F4F84911BD097
:107F6000EA94F801C1F70894C11CD11CFA94CF0C13
:107F7000D11C0EC0853739F428D08EE10CD085E9AC
:107F80000AD08FE07ACF813511F488E018D01DD067
:107F900080E101D065CF982F8091C00085FFFCCF94
:107FA0009093C60008958091C00087FFFCCF809118
:107FB000C00084FD01C0A8958091C6000895E0E648
:107FC000F0E098E1908380830895EDDF803219F02E
:107FD00088E0F5DFFFCF84E1DECF1F93182FE3DFCA
:107FE0001150E9F7F2DF1F91089580E0E8DFEE27F6
:047FF000FF270994CA
:027FFE00040479
:0400000300007E007B
:00000001FF