:100000000C9463000C948B000C948B000C9469048A
:100010000C9469040C9469040C948B000C948B0070
:100020000C948B000C948B000C948B000C94E304C8
:100030000C948B000C948B000C948B000C948B0014
:100040000C941F040C948B000C94ED030C94C703C8
:100050000C948B000C948B000C948B000C948B00F4
:100060000C948B000C948B000000000024002700EF
:100070002A0000000008000201000003040700003D
:1000800000000000000000000000250028002B00F8
:1000900000000000230026002900040404040404D6
:1000A0000404020202020202030303030303010227
:1000B00004081020408001020408102001020408F6
:1000C0001020A405BB0811241FBECFEFD8E0DEBF6F
:1000D000CDBF11E0A0E0B1E0EAE0F3E102C005909D
:1000E0000D92A834B107D9F722E0A8E4B1E001C02D
:1000F0001D92AA38B207E1F710E0C2E6D0E004C0D2
:100100002197FE010E946D09C136D107C9F70E94EF
:10011000BE060C9478090C940000CF92DF92EF9207
:10012000FF920F931F93CF93DF936C017A018B01A2
:10013000C0E0D0E0CE15DF0589F0D8016D918D01CA
:10014000D601ED91FC910190F081E02DC601099559
:10015000892B11F47E0102C02196ECCFC701DF91FB
:10016000CF911F910F91FF90EF90DF90CF90089566
:10017000FC01538D448D252F30E0842F90E0821BAD
:10018000930B541710F0CF96089501970895FC0132
:10019000918D828D981761F0828DDF01A80FB11DBE
:1001A0005D968C91928D9F5F9F73928F90E00895E2
:1001B0008FEF9FEF0895FC01918D828D981731F09C
:1001C000828DE80FF11D858D90E008958FEF9FEFF0
:1001D0000895FC01918D228D892F90E0805C9F4FC6
:1001E000821B91098F739927089586E991E00E94F7
:1001F000E90021E0892B09F420E0822F0895FC0119
:10020000848DDF01A80FB11DA35ABF4F2C91848D9F
:1002100090E001968F739927848FA689B7892C93D4
:10022000A089B1898C9180648C93938D848D98136F
:1002300006C00288F389E02D80818F7D8083089538
:10024000EF92FF920F931F93CF93DF93EC0181E026
:10025000888F9B8D8C8D981305C0E889F9898081E2
:1002600085FD24C0F62E0B8D10E00F5F1F4F0F731E
:100270001127E02E8C8DE8120CC00FB607FCFACFC8
:10028000E889F989808185FFF5CFCE010E94FF00C2
:10029000F1CF8B8DFE01E80FF11DE35AFF4FF08285
:1002A0000B8FEA89FB898081806207C0EE89FF8914
:1002B0006083E889F98980818064808381E090E0AF
:1002C000DF91CF911F910F91FF90EF900895CF9301
:1002D000DF93EC01888D8823C9F0EA89FB8980814E
:1002E00085FD05C0A889B9898C9186FD0FC00FB620
:1002F00007FCF5CF808185FFF2CFA889B9898C9161
:1003000085FFEDCFCE010E94FF00E7CFDF91CF91B7
:10031000089580E090E0892B29F00E94F50081117A
:100320000C940000089590E0FC01EE58FF4F3491CA
:10033000FC01E255FF4F2491FC01E656FF4FE4918A
:10034000EE2309F43BC0332339F1333091F038F414
:100350003130A9F0323001F584B58F7D12C03730CD
:1003600091F03830A1F03430B9F4809180008F7D65
:1003700003C0809180008F77809380000DC084B58A
:100380008F7784BD09C08091B0008F7703C08091C2
:10039000B0008F7D8093B000F0E0EE0FFF1FEA57B2
:1003A000FF4FA591B4918FB7F894EC91611103C000
:1003B00020952E2301C02E2B2C938FBF0895CF9311
:1003C000DF9390E0FC01E255FF4F2491FC01E656DB
:1003D000FF4F8491882361F190E0880F991FFC0101
:1003E000E859FF4FC591D491FC01EA57FF4FA59101
:1003F000B491611109C09FB7F89488812095822338
:100400008883EC912E230BC0623061F49FB7F8947F
:100410003881822F809583238883EC912E2B2C9317
:100420009FBF06C08FB7F894E8812E2B28838FBF1B
:10043000DF91CF9108951F93CF93DF93182FEB0196
:1004400061E00E94DF01209711F460E004C0CF3F1B
:10045000D10539F461E0812FDF91CF911F910C9488
:100460009301E12FF0E0EE58FF4FE491E330F9F013
:1004700048F4E130B9F0E230A1F584B5806284BD82
:10048000C8BD34C0E730E9F0E83019F1E43049F58F
:1004900080918000806280938000D0938B00C09315
:1004A0008A0024C084B5806884BDC7BD1FC0809108
:1004B0008000806880938000D0938900C09388007A
:1004C00015C08091B00080688093B000C093B300E5
:1004D0000DC08091B00080628093B000C093B400E2
:1004E00005C0C038D1050CF0B5CFAFCFDF91CF91AB
:1004F0001F910895CF93DF93CCE7D2E06A8570E037
:100500008C810E941B026B8570E08D810E941B0212
:100510006E8188810E9493016F8189810E9493017D
:1005200068858A810E94930169858B81DF91CF91D3
:100530000C9493013FB7F89480918E0190918F01B4
:10054000A0919001B091910126B5A89B05C02F3FC5
:1005500019F00196A11DB11D3FBFBA2FA92F982FE9
:100560008827820F911DA11DB11DBC01CD0142E064
:10057000660F771F881F991F4A95D1F708958F92AC
:100580009F92AF92BF92CF92DF92EF92FF926B0158
:100590007C010E949A024B015C01C114D104E10468
:1005A000F104F1F00E949A02DC01CB01881999094B
:1005B000AA09BB09883E9340A105B10570F321E06B
:1005C000C21AD108E108F10888EE880E83E0981E6F
:1005D000A11CB11CC114D104E104F10419F7DDCF51
:1005E000FF90EF90DF90CF90BF90AF909F908F9053
:1005F000089520919401309195012817390771F4DD
:100600009091920180919301981741F0E0919201AD
:10061000F0E0E75BFE4F808190E008958FEF9FEF61
:10062000089508951F93CF93DF93DC015C962D917D
:100630003C915D972115310539F481E090E01396E6
:100640009C938E9312973DC05196ED91FC915297D9
:1006500050969C915097892F80951FB75E964C912C
:100660005E9741FB772770F941FD6095F8944081D2
:10067000772311F0492B01C048234083E9012197DA
:10068000F1F748E0508160FF02C0592B01C05823A8
:100690005083E9012197F1F76695415099F7772347
:1006A00021F090818923808303C08081982B9083DF
:1006B0001FBF5C968D919C915D970197F1F721E0AA
:1006C00030E0C901DF91CF911F91089520919401ED
:1006D000309195012817390771F480919301209189
:1006E000920190E0805C9F4F821B910960E470E072
:1006F0000E944509089580E090E0089520919401BA
:100700003091950128173907B9F4909192018091A1
:100710009301981789F0E0919201F0E0E75BFE4FBA
:1007200080812091920130E02F5F3F4F2F7333275C
:100730002093920190E008958FEF9FEF0895089520
:1007400080E090E00895CF93DF93009779F0FC016B
:1007500001900020E9F73197AF01481B590BBC010C
:1007600086E991E00E948D00EC0102C0C0E0D0E07B
:1007700042E050E064E271E086E991E00E948D0081
:100780008C0F9D1FDF91CF9108950E9473091F92D6
:100790000F920FB60F9211242F933F934F935F93B5
:1007A0006F937F938F939F93AF93BF93EF93FF9339
:1007B00086E991E00E94FF00FF91EF91BF91AF9118
:1007C0009F918F917F916F915F914F913F912F9169
:1007D0000F900FBE0F901F9018951F920F920FB69B
:1007E0000F9211242F938F939F93EF93FF93E09198
:1007F000A601F091A7018081E091AC01F091AD01DB
:1008000082FD12C090818091AF018F5F8F73209124
:10081000B001821751F0E091AF01F0E0EA56FE4FCF
:10082000958F8093AF0101C08081FF91EF919F91DF
:100830008F912F910F900FBE0F901F9018951F92C0
:100840000F920FB60F9211242F933F938F939F9384
:10085000AF93BF9380918A0190918B01A0918C01FD
:10086000B0918D013091890123E0230F2D3720F4C1
:100870000196A11DB11D05C026E8230F0296A11DFA
:10088000B11D2093890180938A0190938B01A093DD
:100890008C01B0938D0180918E0190918F01A09178
:1008A0009001B09191010196A11DB11D80938E011F
:1008B00090938F01A0939001B0939101BF91AF915C
:1008C0009F918F913F912F910F900FBE0F901F908E
:1008D00018951F920F920FB60F9211242F933F93EA
:1008E0004F935F936F937F938F939F93AF93BF9338
:1008F000EF93FF93E0919401F0919501309709F403
:1009000051C0968DA685B785858591FF04C09C91C1
:10091000892329F447C09C91892309F043C0A38906
:10092000B4899C918589809589238C938689978940
:100930000197F1F7608D718DA685B785558538E0F3
:1009400020E0CB010197F1F7822F90E095958795F4
:10095000282F4C91452309F02068315091F7868D5E
:1009600081FD20958091930190E001968F739927E6
:1009700030919201381749F0A0919301B0E0A75B44
:10098000BE4F2C938093930103C0868D8160868F28
:10099000828D938D0197F1F7A389B4899C91858904
:1009A000892B8C93FF91EF91BF91AF919F918F9184
:1009B0007F916F915F914F913F912F910F900FBE5B
:1009C0000F901F9018951F920F920FB60F9211243F
:1009D0002F933F934F935F936F937F938F939F9347
:1009E000AF93BF93EF93FF938091480187FF05C0BA
:1009F00010928500109284001BC020914801022EA5
:100A0000000C330B8091570290E02817390784F4CB
:100A100080914801082E000C990BFC01EE0FFF1F7E
:100A20008E0F9F1FFC01ED5CFD4F808186FD15C080
:100A3000809148018F5F8093480120914801022EE8
:100A4000000C330B8091570290E028173907C4F44B
:100A5000809148018C3064F113C080914801082EC8
:100A6000000C990BFC01EE0FFF1F8E0F9F1FFC0166
:100A7000ED5CFD4F808160E08F730E949301D8CFC1
:100A80008091840090918500049680349C4918F4EC
:100A900080E49CE905C080918400909185000496D3
:100AA00090938900809388008FEF809348013BC02A
:100AB000209184003091850080914801082E000C1F
:100AC000990BFC01EE0FFF1F8E0F9F1FFC01ED5CC9
:100AD000FD4F81819281820F931F909389008093B3
:100AE000880080914801082E000C990BFC01EE0F44
:100AF000FF1F8E0F9F1FFC01ED5CFD4F808186FF65
:100B000012C080914801082E000C990BFC01EE0FD9
:100B1000FF1F8E0F9F1FFC01ED5CFD4F808161E088
:100B20008F730E949301FF91EF91BF91AF919F91BD
:100B30008F917F916F915F914F913F912F910F9086
:100B40000FBE0F901F901895109299011092980166
:100B500088EE93E0A0E0B0E080939A0190939B012F
:100B6000A0939C01B0939D0184E091E09093970144
:100B70008093960185EC90E09093A3018093A2016D
:100B800084EC90E09093A5018093A40180EC90E028
:100B90009093A7018093A60181EC90E09093A90126
:100BA0008093A80182EC90E09093AB018093AA011E
:100BB00086EC90E09093AD018093AC011092AF0170
:100BC0001092B0011092B1011092B20196E9909387
:100BD00088028BE980938902109285021092840228
:100BE0001092830210928202909386028093870271
:100BF00088E080937C0289E080937D028AE0809384
:100C00007E028BE080937F0286E08093800285E005
:100C10008093810261E088E00E94DF0161E08091C1
:100C20007D020E94DF0161E080917E020E94DF016F
:100C300061E080917F020E94DF0161E0809180028B
:100C40000E94DF0161E0809181020E94DF018EE05D
:100C500080937A028FE080937B0261E08EE00E94B5
:100C6000DF0160E080917B020E94DF0180915702EA
:100C70008C30A0F491E0980F909357028093770204
:100C800090E0FC01EE0FFF1F8E0F9F1FFC01ED5C3B
:100C9000FD4F88EB9BE09283818303C08FEF8093AD
:100CA000770210925B0210925A0288EE93E0A0E065
:100CB000B0E080935C0290935D02A0935E02B093DB
:100CC0005F0286E191E0909359028093580210925E
:100CD0006F0210926E0210927102109270021092C6
:100CE0007302109272021092750210927402609157
:100CF00076026E7F6D7F609376026695617081E00B
:100D0000682783E00E94930161E083E00E94DF0195
:100D1000E1EBF0E0E491E0936802EDE9F0E0E491CA
:100D2000F0E0EE0FFF1FEA57FF4F859194919093EB
:100D30006A028093690260E082E00E94DF01809194
:100D4000760281FD04C061E082E00E94930182E0AE
:100D500080936402E0EBF0E0E491E0936502ECE95B
:100D6000F0E0E491F0E0EE0FFF1FE057FF4F8591B8
:100D7000949190936702809366020895789484B565
:100D8000826084BD84B5816084BD85B5826085BD87
:100D900085B5816085BD80916E00816080936E0015
:100DA0001092810080918100826080938100809107
:100DB00081008160809381008091800081608093B8
:100DC00080008091B10084608093B1008091B00078
:100DD00081608093B00080917A00846080937A0073
:100DE00080917A00826080937A0080917A0081609D
:100DF00080937A0080917A00806880937A001092C4
:100E0000C10010927302109272021092710210923D
:100E1000700210926F0210926E028FE190E0909338
:100E200075028093740290916402963108F057C065
:100E300021E030E030936F0220936E022DE130E02C
:100E400030937102209370022DE030E030937302F2
:100E50002093720220916800983050F031E09E306B
:100E600008F430E081E001C0880F3A95EAF701C04C
:100E700084E0822B80936800983038F09E3040F0F8
:100E8000963148F020E030E008C02DE630E005C0A3
:100E90002BE630E002C02CE630E030936C02209369
:100EA0006B02983030F481E001C0880F9A95EAF720
:100EB0000EC0292F30E09E3018F42850310902C0AE
:100EC0002E50310981E001C0880F2A95EAF78093FE
:100ED0006D0280917402909175020197F1F78091F3
:100EE000720290917302892B49F1E0919401F09183
:100EF000950182E0E835F80709F1309739F0A389C8
:100F0000B4899C918589809589238C938091760200
:100F10008E7F80937602109293011092920188E561
:100F200092E09093950180939401E0916B02F0918F
:100F30006C02908180916D02892B8083E091A601E3
:100F4000F091A70182E08083E091A201F091A301DA
:100F50001082E091A401F091A5018FEC80831092A2
:100F6000AE01E091AA01F091AB0186E08083E091AF
:100F7000A801F091A901808180618083E091A8019E
:100F8000F091A901808188608083E091A801F091AF
:100F9000A901808180688083E091A801F091A90176
:100FA00080818F7D8083809177028C3008F051C0E2
:100FB00061E08CE00E94DF0180917702E82FF0E091
:100FC0009F01220F331FE20FF31FED5CFD4F908155
:100FD000907C9C60908310927802109279026CE071
:100FE0000E9439099CE0899FB001112440E050E043
:100FF0009A01260F371FF901EE0FFF1F2E0F3F1F1B
:10100000F901ED5CFD4F908196FD16C04F5F5F4F7B
:101010004C30510569F781110FC01092800082E0B9
:10102000809381001092850010928400B19A809183
:101030006F00826080936F00E0917702F0E0CF0153
:10104000880F991FE80FF91FED5CFD4F80818064C8
:1010500080838091790208E512E0081B110987FD61
:101060001395000F111F000F111F80917802C8E81F
:10107000D0E0C81BD10987FDD395CC0FDD1FCC0F65
:10108000DD1F6E010D2E000CEE08FF08C801012EB9
:10109000000CAA0BBB0B9C01AD012C193D094E099C
:1010A0005F09AAE5B0E00E94FD0824EB30E040E0D3
:1010B00050E00E94DE08C20ED31EE41EF51E809191
:1010C00077028C30C8F4CC16DD062CF0E6010C1546
:1010D0001D050CF4E8012297CC0FDD1F2FB7F89403
:1010E00090E0FC01EE0FFF1F8E0F9F1FFC01ED5CD7
:1010F000FD4FD283C1832FBF60ED77E080E090E0A9
:101100000E94BF0282E88093870280938602C1E03A
:101110001092840210928202C0938502C0938302CF
:101120000E947A0268EB7BE080E090E00E94BF02C0
:10113000C0938402C09382021092850210928302AF
:101140000E947A0264E670E080E090E00E94BF02B4
:10115000C0938502C0938302C0938402C09382022D
:101160000E947A0268EB7BE080E090E00E94BF0280
:101170000E948901CDCF86E191E09093590280933E
:10118000580280919401909195018855924071F494
:10119000E0916B02F0916C02908180916D028095DC
:1011A00089238083109295011092940187E291E047
:1011B0000E94A30386E391E00C94A303052E97FB02
:1011C0001EF400940E94F50857FD07D00E940809FC
:1011D00007FC03D04EF40C94F508509540953095DB
:1011E00021953F4F4F4F5F4F089590958095709593
:1011F00061957F4F8F4F9F4F08950E942A09A59FA9
:10120000900DB49F900DA49F800D911D1124089501
:10121000A1E21A2EAA1BBB1BFD010DC0AA1FBB1FFA
:10122000EE1FFF1FA217B307E407F50720F0A21B6C
:10123000B30BE40BF50B661F771F881F991F1A94D9
:1012400069F760957095809590959B01AC01BD0103
:10125000CF010895A29FB001B39FC001A39F700D5D
:10126000811D1124911DB29F700D811D1124911DAE
:101270000895991B79E004C0991F961708F0961BF2
:10128000881F7A95C9F78095089597FB072E16F465
:10129000009407D077FD09D00E94590907FC05D0BA
:1012A0003EF4909581959F4F0895709561957F4F7D
:1012B0000895AA1BBB1B51E107C0AA1FBB1FA6179D
:1012C000B70710F0A61BB70B881F991F5A95A9F7EF
:1012D00080959095BC01CD010895EE0FFF1F0590FC
:1012E000F491E02D099481E090E0F8940C94780951
:1012F00010E0C2E6D0E004C0FE010E946D09219614
:0A130000C336D107C9F7F894FFCFF8
:10130A000000000020018D00B8006701E900C70055
:10131A00DB000000000012038D00A0031103660326
:10132A007E03F9020D0A00535230343A3A7E535280
:10133A00303428293B004C3239384E3A3A7E4C3206
:08134A0039384E28293B000050
:00000001FF
