:100000000C945E000C9486000C9486000C94860080
:100010000C9486000C9486000C9486000C94860048
:100020000C9486000C9486000C9486000C94860038
:100030000C9486000C9486000C9486000C94860028
:100040000C94F5020C9486000C94C3020C949D024F
:100050000C9486000C9486000C9486000C94860008
:100060000C9486000C9486000000000024002700F9
:100070002A0000000000250028002B0004040404CE
:100080000404040402020202020203030303030342
:10009000010204081020408001020408102001021F
:1000A00004081020000000080002010000030407FB
:1000B00000000000000000003F03570411241FBE91
:1000C000CFEFD8E0DEBFCDBF11E0A0E0B1E0EEEEB3
:1000D000F8E002C005900D92A633B107D9F721E0F0
:1000E000A6E3B1E001C01D92AC3EB207E1F710E01B
:1000F000CDE5D0E004C02197FE010E945F04CC351D
:10010000D107C9F70E94AD030C946A040C94000057
:10011000CF92DF92EF92FF920F931F93CF93DF93D3
:100120006C017A018B01C0E0D0E0CE15DF0589F0CB
:10013000D8016D918D01D601ED91FC910190F08176
:10014000E02DC6010995892B11F47E0102C021968C
:10015000ECCFC701DF91CF911F910F91FF90EF90EE
:10016000DF90CF900895089580E090E00895FC011D
:10017000538D448D252F30E0842F90E0821B930B0C
:10018000541710F0CF96089501970895FC01918DB2
:10019000828D981761F0828DDF01A80FB11D5D96E9
:1001A0008C91928D9F5F9F73928F90E008958FEF57
:1001B0009FEF0895FC01918D828D981731F0828D0B
:1001C000E80FF11D858D90E008958FEF9FEF089562
:1001D000FC01918D228D892F90E0805C9F4F821BC6
:1001E00091098F73992708958FE391E00E94E800A9
:1001F00021E0892B09F420E0822F0895FC01848DF1
:10020000DF01A80FB11DA35ABF4F2C91848D90E040
:1002100001968F739927848FA689B7892C93A0891B
:10022000B1898C9180648C93938D848D981306C0D2
:100230000288F389E02D80818F7D80830895EF927D
:10024000FF920F931F93CF93DF93EC0181E0888F90
:100250009B8D8C8D981305C0E889F989808185FD77
:1002600024C0F62E0B8D10E00F5F1F4F0F73112768
:10027000E02E8C8DE8120CC00FB607FCFACFE8898F
:10028000F989808185FFF5CFCE010E94FE00F1CF74
:100290008B8DFE01E80FF11DE35AFF4FF0820B8FAB
:1002A000EA89FB898081806207C0EE89FF896083CB
:1002B000E889F98980818064808381E090E0DF9122
:1002C000CF911F910F91FF90EF900895CF93DF93FF
:1002D000EC01888D8823C9F0EA89FB89808185FD3E
:1002E00005C0A889B9898C9186FD0FC00FB607FC9F
:1002F000F5CF808185FFF2CFA889B9898C9185FFE0
:10030000EDCFCE010E94FE00E7CFDF91CF9108959F
:1003100080E090E0892B29F00E94F40081110C9478
:100320000000089590E0FC01EC55FF4F3491FC0172
:10033000E057FF4F2491FC01E458FF4FE491EE2376
:1003400009F43BC0332339F1333091F038F43130C4
:10035000A9F0323001F584B58F7D12C0373091F0AD
:100360003830A1F03430B9F4809180008F7D03C023
:10037000809180008F77809380000DC084B58F7747
:1003800084BD09C08091B0008F7703C08091B00018
:100390008F7D8093B000F0E0EE0FFF1FEE58FF4F0F
:1003A000A591B4918FB7F894EC91611103C0209599
:1003B0002E2301C02E2B2C938FBF0895CF93DF9354
:1003C00090E0FC01E057FF4F2491FC01E458FF4FFF
:1003D0008491882361F190E0880F991FFC01E8590E
:1003E000FF4FC591D491FC01EE58FF4FA591B491F8
:1003F000611109C09FB7F894888120958223888372
:10040000EC912E230BC0623061F49FB7F8943881D1
:10041000822F809583238883EC912E2B2C939FBF72
:1004200006C08FB7F894E8812E2B28838FBFDF9109
:10043000CF9108951F93CF93DF93182FEB0161E0C5
:100440000E94DE01209711F460E004C0CF3FD10587
:1004500039F461E0812FDF91CF911F910C949201CB
:10046000E12FF0E0EC55FF4FE491E330F9F048F470
:10047000E130B9F0E230A1F584B5806284BDC8BD39
:1004800034C0E730E9F0E83019F1E43049F5809103
:100490008000806280938000D0938B00C0938A009C
:1004A00024C084B5806884BDC7BD1FC08091800012
:1004B000806880938000D0938900C093880015C025
:1004C0008091B00080688093B000C093B3000DC0ED
:1004D0008091B00080628093B000C093B40005C0EA
:1004E000C038D1050CF0B5CFAFCFDF91CF911F91C0
:1004F0000895CF93DF93009779F0FC0101900020DD
:10050000E9F73197AF01481B590BBC018FE391E02C
:100510000E948800EC0102C0C0E0D0E042E050E060
:1005200062E171E08FE391E00E9488008C0F9D1FD3
:10053000DF91CF9108950E9465041F920F920FB62C
:100540000F9211242F933F934F935F936F937F9359
:100550008F939F93AF93BF93EF93FF938FE391E0BC
:100560000E94FE00FF91EF91BF91AF919F918F91FB
:100570007F916F915F914F913F912F910F900FBE9F
:100580000F901F9018951F920F920FB60F92112483
:100590002F938F939F93EF93FF93E0914F01F091EF
:1005A00050018081E0915501F091560182FD12C009
:1005B0009081809158018F5F8F732091590182172C
:1005C00051F0E0915801F0E0E15CFE4F958F80938F
:1005D000580101C08081FF91EF919F918F912F91E0
:1005E0000F900FBE0F901F9018951F920F920FB68D
:1005F0000F9211242F933F938F939F93AF93BF93A9
:1006000080913B0190913C01A0913D01B0913E0150
:1006100030913A0123E0230F2D3720F40196A11DDC
:10062000B11D05C026E8230F0296A11DB11D209320
:100630003A0180933B0190933C01A0933D01B0931C
:100640003E018091360190913701A0913801B0911F
:1006500039010196A11DB11D809336019093370198
:10066000A0933801B0933901BF91AF919F918F91C1
:100670003F912F910F900FBE0F901F901895CF9321
:10068000DF93EFE3F1E01382128288EE93E0A0E0C3
:10069000B0E084839583A683B78384E091E091835F
:1006A000808385EC90E09587848784EC90E0978741
:1006B000868780EC90E0918B808B81EC90E0938B2F
:1006C000828B82EC90E0958B848B86EC90E0978B0C
:1006D000868B118E128E138E148ECEEDD1E094E6A1
:1006E0009C8789E68D87198618861F821E829A87C5
:1006F0008B8788E0888389E089838AE08A838BE01E
:100700008B8386E08C8385E08D8361E088E00E94A6
:10071000DE0161E089810E94DE0161E08A810E9440
:10072000DE0161E08B810E94DE0161E08C810E942C
:10073000DE0161E08D810E94DE01CCEDD1E08EE032
:1007400088838FE0898361E08EE00E94DE0160E0B3
:100750008981DF91CF910C94DE01789484B5826019
:1007600084BD84B5816084BD85B5826085BD85B555
:10077000816085BD80916E00816080936E001092D3
:10078000810080918100826080938100809181004E
:1007900081608093810080918000816080938000DF
:1007A0008091B10084608093B1008091B00081603D
:1007B0008093B00080917A00846080937A00809169
:1007C0007A00826080937A0080917A0081608093C1
:1007D0007A0080917A00806880937A001092C1003C
:1007E000E0914F01F091500182E08083E0914B0154
:1007F000F0914C011082E0914D01F0914E018FEC8F
:10080000808310925701E0915301F091540186E0EA
:100810008083E0915101F091520180818061808359
:10082000E0915101F0915201808188608083E091D4
:100830005101F0915201808180688083E0915101E3
:10084000F091520180818F7D8083C1E01092E6019A
:100850001092E401C093E701C093E5016091E801C3
:1008600070E08091E2010E941A026091E90170E05B
:100870008091E3010E941A026091E4018091DE01FF
:100880000E9492016091E5018091DF010E94920136
:100890006091E6018091E0010E9492016091E70180
:1008A0008091E1010E9492010E948801CFCF85E1F1
:1008B00091E00E94790284E291E00C947902EE0FBB
:1008C000FF1F0590F491E02D099481E090E0F894E9
:1008D0000C946A0410E0CDE5D0E004C0FE010E9453
:0E08E0005F042196CE35D107C9F7F894FFCFFB
:1008EE00000000001F018800B7006601E800C60086
:1008FE00DA000D0A00535230343A3A7E53523034F5
:10090E0028293B004C3239384E3A3A7E4C3239382F
:06091E004E28293B0000F9
:107E0000112484B714BE81FFF0D085E080938100F7
:107E100082E08093C00088E18093C10086E0809377
:107E2000C20080E18093C4008EE0C9D0259A86E02C
:107E300020E33CEF91E0309385002093840096BBD3
:107E4000B09BFECF1D9AA8958150A9F7CC24DD24C4
:107E500088248394B5E0AB2EA1E19A2EF3E0BF2EE7
:107E6000A2D0813461F49FD0082FAFD0023811F036
:107E7000013811F484E001C083E08DD089C08234E0
:107E800011F484E103C0853419F485E0A6D080C0E4
:107E9000853579F488D0E82EFF2485D0082F10E0AE
:107EA000102F00270E291F29000F111F8ED06801E7
:107EB0006FC0863521F484E090D080E0DECF843638
:107EC00009F040C070D06FD0082F6DD080E0C81688
:107ED00080E7D80618F4F601B7BEE895C0E0D1E017
:107EE00062D089930C17E1F7F0E0CF16F0E7DF06D8
:107EF00018F0F601B7BEE89568D007B600FCFDCFD4
:107F0000A601A0E0B1E02C9130E011968C91119780
:107F100090E0982F8827822B932B1296FA010C0160
:107F200087BEE89511244E5F5F4FF1E0A038BF0790
:107F300051F7F601A7BEE89507B600FCFDCF97BE46
:107F4000E89526C08437B1F42ED02DD0F82E2BD052
:107F50003CD0F601EF2C8F010F5F1F4F84911BD097
:107F6000EA94F801C1F70894C11CD11CFA94CF0C13
:107F7000D11C0EC0853739F428D08EE10CD085E9AC
:107F80000AD08FE07ACF813511F488E018D01DD067
:107F900080E101D065CF982F8091C00085FFFCCF94
:107FA0009093C60008958091C00087FFFCCF809118
:107FB000C00084FD01C0A8958091C6000895E0E648
:107FC000F0E098E1908380830895EDDF803219F02E
:107FD00088E0F5DFFFCF84E1DECF1F93182FE3DFCA
:107FE0001150E9F7F2DF1F91089580E0E8DFEE27F6
:047FF000FF270994CA
:027FFE00040479
:0400000300007E007B
:00000001FF