:100000000C9458000C9480000C9480000C94800098
:100010000C9480000C9480000C9480000C94800060
:100020000C9480000C9480000C9480000C94800050
:100030000C9480000C9480000C9480000C94800040
:100040000C9441030C9480000C949E020C94780252
:100050000C9480000C9480000C9480000C94800020
:100060000C941E060C94800000000000250028005F
:100070002B00040404040404040402020202020229
:10008000030303030303010204081020408001025C
:1000900004081020010204081020000000080002DB
:1000A00001000003040700000000000000004C07EE
:1000B00011241FBECFEFD8E0DEBFCDBF23E0AEE5F9
:1000C000B1E001C01D92AD30B207E1F711E0A0E050
:1000D000B1E0E0ECF3E102C005900D92AE35B1075E
:1000E000D9F710E0C8E5D0E004C02197FE010E94D6
:1000F000D309C735D107C9F70E94BD070C94DE09A3
:100100000C940000CF92DF92EF92FF920F931F9317
:10011000CF93DF936C017A018B01C0E0D0E0CE1564
:10012000DF0589F0D8016D918D01D601ED91FC912B
:100130000190F081E02DC6010995892B11F47E0113
:1001400002C02196ECCFC701DF91CF911F910F9193
:10015000FF90EF90DF90CF900895FC01538D448D78
:10016000252F30E0842F90E0821B930B541710F062
:10017000CF96089501970895FC01918D828D98176F
:1001800061F0828DDF01A80FB11D5D968C91928D7B
:100190009F5F9F73928F90E008958FEF9FEF089578
:1001A000FC01918D828D981731F0828DE80FF11D41
:1001B000858D90E008958FEF9FEF0895FC01918D5C
:1001C000228D892F90E0805C9F4F821B91098F7355
:1001D0009927089586EC91E00E94DE0021E0892BAA
:1001E00009F420E0822F0895FC01848DDF01A80F1F
:1001F000B11DA35ABF4F2C91848D90E001968F734F
:100200009927848FA689B7892C93A089B1898C916D
:1002100080648C93938D848D981306C00288F38933
:10022000E02D80818F7D80830895EF92FF920F9360
:100230001F93CF93DF93EC0181E0888F9B8D8C8D92
:10024000981305C0E889F989808185FD24C0F62EC0
:100250000B8D10E00F5F1F4F0F731127E02E8C8D59
:10026000E8120CC00FB607FCFACFE889F989808143
:1002700085FFF5CFCE010E94F400F1CF8B8DFE01FA
:10028000E80FF11DE35AFF4FF0820B8FEA89FB89DB
:100290008081806207C0EE89FF896083E889F989DF
:1002A00080818064808381E090E0DF91CF911F9115
:1002B0000F91FF90EF900895CF93DF93EC01888D1D
:1002C0008823C9F0EA89FB89808185FD05C0A8895A
:1002D000B9898C9186FD0FC00FB607FCF5CF8081E0
:1002E00085FFF2CFA889B9898C9185FFEDCFCE012A
:1002F0000E94F400E7CFDF91CF91089580E090E075
:10030000892B29F00E94EA0081110C9400000895C5
:100310002FB7F8946091B6017091B7018091B80140
:100320009091B9012FBF08958F929F92AF92BF9283
:10033000CF92DF92EF92FF926B017C010E948801C5
:100340004B015C01C60ED71EE81EF91E0E948801F3
:10035000681579058A059B0528F0C616D706E806B4
:10036000F906A0F7FF90EF90DF90CF90BF90AF908D
:100370009F908F9008956115710579F0FB010190B0
:100380000020E9F73197AF01461B570BDC01ED91D7
:10039000FC910280F381E02D099480E090E00895C3
:1003A0004F925F926F927F92EF92FF920F931F9303
:1003B000CF93DF93CDB7DEB7A1970FB6F894DEBF2A
:1003C0000FBECDBF7C01FA01CB0119A2223008F487
:1003D0002AE08E010F5D1F4F422E512C612C712C93
:1003E000BF01A30192010E94B109F901CA010150A4
:1003F00011096A3014F4605D01C0695CD8016C9326
:10040000232B242B252B61F7B801C7010E94BB01C8
:10041000A1960FB6F894DEBF0FBECDBFDF91CF918E
:100420001F910F91FF90EF907F906F905F904F9092
:1004300008950E94D9092091A8019091A701213225
:1004400008F04AC0809184018111FCCF32E03093E2
:10045000840131E0309383013FEF309382011092A9
:10046000810120938001A7E8B1E040E651E0FA0164
:100470003E2F341B321718F43D913193F9CF10926F
:100480005F0120915F01990F922B90935F019091F2
:100490005E01913061F410925E0190915F01909342
:1004A000BB009091BC0093FDF8CF95EC01C095EE98
:1004B0009093BC00909184019230E1F3909182017D
:1004C0009F3F79F080918201803241F080918201DA
:1004D000803331F084E005C081E003C082E001C0D8
:1004E00083E0109286011092A80110928501089570
:1004F0001F920F920FB60F9211242F933F934F9399
:100500005F936F937F938F939F93AF93BF93EF937B
:10051000FF9386EC91E00E94F400FF91EF91BF9170
:10052000AF919F918F917F916F915F914F913F918B
:100530002F910F900FBE0F901F9018951F920F9242
:100540000FB60F9211242F938F939F93EF93FF93E6
:10055000E091D601F091D7018081E091DC01F0912A
:10056000DD0182FD12C090818091DF018F5F8F736A
:100570002091E001821751F0E091DF01F0E0EA53B1
:10058000FE4F958F8093DF0101C08081FF91EF9135
:100590009F918F912F910F900FBE0F901F901895E4
:1005A00090E0FC01E656FF4F3491FC01EA57FF4F03
:1005B0002491FC01EE58FF4FE491EE2309F43BC077
:1005C000332339F1333091F038F43130A9F032303F
:1005D00001F584B58F7D12C0373091F03830A1F02D
:1005E0003430B9F4809180008F7D03C08091800009
:1005F0008F77809380000DC084B58F7784BD09C04C
:100600008091B0008F7703C08091B0008F7D809380
:10061000B000F0E0EE0FFF1FE859FF4FA591B49135
:100620008FB7F894EC91611103C020952E2301C07F
:100630002E2B2C938FBF08953FB7F8948091BA0169
:100640009091BB01A091BC01B091BD0126B5A89BC2
:1006500005C02F3F19F00196A11DB11D3FBFBA2F54
:10066000A92F982F8827820F911DA11DB11DBC01B4
:10067000CD0142E0660F771F881F991F4A95D1F779
:1006800008951F920F920FB60F9211242F933F934C
:100690008F939F93AF93BF938091B6019091B701D1
:1006A000A091B801B091B9013091B50123E0230FB9
:1006B0002D3720F40196A11DB11D05C026E8230F9A
:1006C0000296A11DB11D2093B5018093B6019093B0
:1006D000B701A093B801B093B9018091BA0190918C
:1006E000BB01A091BC01B091BD010196A11DB11D3E
:1006F0008093BA019093BB01A093BC01B093BD015C
:10070000BF91AF919F918F913F912F910F900FBE0D
:100710000F901F901895EF92FF920F931F93CF9316
:100720008C01FC01759684E0C0E060FF02C09081FE
:10073000C92B6695815031968111F7CF413011F464
:10074000F8014489F8018585C82BC42B7801FEE0A7
:10075000EF0EF11CF80162896C2BC7010E94810524
:10076000F801628960956C23C701CF911F910F91A9
:10077000FF90EF900C94810521E001C0220F6A9553
:10078000EAF7DC011C962C931C971A965C934E9307
:100790001997ED91FC910484F585E02D60E00994B2
:1007A000DC01ED91FC910684F785E02D41E009958F
:1007B00081E090E008950895089585ED8093BC0050
:1007C0008091BC0084FDFCCF10928401089540917B
:1007D000E602262F30E0240F311D21323105DCF4F2
:1007E000209184012430C9F4FC0180E090E0861758
:1007F00058F43091E6022191DC01AC53BD4FA30FB8
:10080000B11D2C930196F3CF8091E602680F60939F
:10081000E60280E0089581E0089582E00895089559
:1008200081E090E030910C0320910B03321710F41B
:1008300080E090E0919581959109089580910C0355
:1008400090910B03891730F48F5F80930C0380E045
:1008500090E008958FEF9FEF089580910B0390E053
:1008600020910C03821B91090895CF92DF92EF92A1
:10087000FF920F931F93CF93DF937C01262F972F27
:100880008A0180918501882391F0C62FD72F6E01B0
:10089000C40ED51ECC15DD0571F06991D701ED911F
:1008A000FC910190F081E02DC7010995F3CF642FF1
:1008B000822F0E94E703C801DF91CF911F910F9112
:1008C000FF90EF90DF90CF900895CF93DF931F922A
:1008D000CDB7DEB76983209185012223D1F0209125
:1008E000A801203240F021E030E0FC013383228374
:1008F00080E090E015C080918601E82FF0E0E95794
:10090000FE4F998190838F5F809386018093A80129
:1009100005C061E0CE0101960E94E70381E090E00E
:100920000F90DF91CF910895089580E090E00895B1
:100930000F931F93CF93DF93062F0F70423019F45C
:1009400040E0602F10C0142F262FEC0130E0B901D9
:1009500084E0759567958A95E1F7CE010E948B0337
:10096000412F602FCE01DF91CF911F910F910C94F9
:100970008B03DC01ED91FC910684F785E02D40E0CE
:1009800009948F929F92AF92BF92CF92DF92EF9293
:10099000FF920F931F93CF93DF93EC01423018F037
:1009A0008C8188608C834F836887222329F04130B3
:1009B00019F48C8184608C830E941C034B015C01C0
:1009C00084E6C82ED12CE12CF12C0E941C03DC0102
:1009D000CB0188199909AA09BB09883E9340A10552
:1009E000B10558F021E0C21AD108E108F10888EEFB
:1009F000880E83E0981EA11CB11CC114D104E1042F
:100A0000F10419F76C8164FD31C0E881F981068435
:100A1000F785E02D42E063E0CE0109958BE496E492
:100A20000197F1F7E881F9810684F785E02D42E02E
:100A300063E0CE01099503E512E0C8010197F1F7E3
:100A4000E881F9810684F785E02D42E063E0CE017C
:100A50000995C8010197F1F7E881F9810684F785C6
:100A6000E02D42E062E0CE01099517C06062CE0140
:100A70000E94B9048BE496E40197F1F76C816062FF
:100A8000CE010E94B90403E512E0C8010197F1F715
:100A90006C816062CE010E94B904C8010197F1F730
:100AA0006C816062CE010E94B9048BEE90E00197E8
:100AB000F1F784E08D836CE0CE010E94B90461E01F
:100AC000CE010E94B9048BE39FE10197F1F782E028
:100AD0008E8366E0CE010E94B904E881F981048426
:100AE000F585E02D6FEFCE01DF91CF911F910F9132
:100AF000FF90EF90DF90CF90BF90AF909F908F903E
:100B00000994FC0123812223B9F0918190956923F6
:100B10006083828191E0909385018093A701109278
:100B200086011092A80189EA91E00E9465040E9462
:100B30001B02282F30E002C020E030E081E090E08E
:100B4000232B11F080E090E00895FC018485882338
:100B5000A9F0218532852115310519F4611106C0EE
:100B600007C02130310521F4611102C0858701C021
:100B700015866585CF010E960C9481050895EF9238
:100B8000FF920F931F93CF93DF93EC01062FF42E68
:100B9000E22E8B85888B10920C0310920B0310921F
:100BA00086011092A8011092840111E01093830134
:100BB00010925E0161E082E10E94D00261E083E177
:100BC0000E94D0028091B9008E7F8093B9008091FD
:100BD000B9008D7F8093B90088E48093B80085E4E4
:100BE0008093BC008889109385018093A70110929F
:100BF00086011092A8010E941B0291E0811190E0F1
:100C0000998B992329F089EA91E00E941E048E872E
:100C10008989882339F01F861C8260E0CE010E96F8
:100C20000E9481052E2D4F2D602FCE01DF91CF9197
:100C30001F910F91FF90EF900C94C1041F920F929F
:100C40000FB60F9211242F933F934F935F936F939F
:100C50007F938F939F93AF93BF93EF93FF93809175
:100C6000B900887F803609F49CC068F5883209F4A1
:100C70005BC090F4803109F454C038F4882309F43F
:100C8000F6C0883009F44DC0F6C0883109F44CC074
:100C9000803209F45DC0EFC0803409F468C048F4C4
:100CA000803309F455C0883309F0E5C08093820190
:100CB000D8C0803509F44FC0883509F45DC0883448
:100CC00009F0D9C0D6C0883909F4C7C0A8F488375C
:100CD00009F467C038F4883609F463C0803709F432
:100CE00060C0C9C0883809F4B8C0803909F45FC051
:100CF000803809F0C0C05BC0803B09F486C038F47E
:100D0000803A09F466C0883A09F47FC0B4C0803CD8
:100D100009F4A7C0883C09F4A4C0883B09F48AC040
:100D2000AAC080915F0110C09091810180918001E3
:100D3000981770F5E091810181E08E0F8093810119
:100D4000F0E0E05AFE4F80818093BB0085EC86C0C6
:100D5000809382018EC0E091810181E08E0F8093AB
:100D600081018091BB00F0E0E05AFE4F80839091BA
:100D70008101809180016EC0E091810181E08E0F40
:100D8000809381018091BB00F0E0E05AFE4F8083A8
:100D90008091830181116DC081E080935E0184EABE
:100DA00061C083E08093840110920A03CFCF8091C9
:100DB0000A03803208F051C0E0910A0381E08E0FEF
:100DC00080930A038091BB00F0E0E651FD4F8083E1
:100DD000BDCF85EC8093BC001092840180910A0302
:100DE000803230F4E0910A03F0E0E651FD4F1082CA
:100DF00060910A0370E0E091E802F091E9028AEE66
:100E000092E0099510920A0336C084E08093840131
:100E10001092E7021092E602E091E402F091E502FE
:100E200009958091E602811105C081E08093E60278
:100E30001092C402E091E70281E08E0F8093E702F6
:100E4000F0E0EC53FD4F80818093BB009091E7026E
:100E50008091E602981708F479CF85E88093BC006A
:100E60000AC085EC8093BC001092840104C01092EB
:100E700082010E94DD03FF91EF91BF91AF919F919D
:100E80008F917F916F915F914F913F912F910F9033
:100E90000FBE0F901F901895E6ECF1E013821282BE
:100EA00088EE93E0A0E0B0E084839583A683B783C7
:100EB00024E031E03183208325EC30E0358724873E
:100EC00024EC30E03787268720EC30E0318B208B14
:100ED00021EC30E0338B228B22EC30E0358B248BFD
:100EE00026EC30E0378B268B118E128E138E148EEB
:100EF000E3E6F2E0168217821086118612861386C8
:100F00001486158616861786108A118A128A138A05
:100F1000148A158AE9EAF1E01382128284839583A8
:100F2000A683B78386E191E091838083EBEAF2E0C8
:100F30001382128288E291E091838083108A8FEF7E
:100F400087871686118A87E283871486158612861C
:100F5000118684E0828B82E0838B81E0848B80E148
:100F6000858B80E2868B80E4878B80E8808F40E0F1
:100F700050E063E0CF010C94BC03789484B58260A8
:100F800084BD84B5816084BD85B5826085BD85B52D
:100F9000816085BD80916E00816080936E001092AB
:100FA0008100809181008260809381008091810026
:100FB00081608093810080918000816080938000B7
:100FC0008091B10084608093B1008091B000816015
:100FD0008093B00080917A00846080937A00809141
:100FE0007A00826080937A0080917A008160809399
:100FF0007A0080917A00806880937A001092C10014
:101000001092A7021092A8021092A9021092AA02AE
:1010100010926502109266021092670210926802A6
:1010200068EB7BE080E090E00E94940186EC91E028
:101030009093A6028093A502E091D601F091D7018A
:1010400082E08083E091D201F091D3011082E0919F
:10105000D401F091D50180E180831092DE01E0910E
:10106000DA01F091DB0186E08083E091D801F09114
:10107000D901808180618083E091D801F091D9010C
:10108000808188608083E091D801F091D9018081CE
:1010900080688083E091D801F091D90180818F7DB3
:1010A00080830E948801609365027093660280933A
:1010B00067029093680268E371E08091A5029091C5
:1010C000A6020E94BB016AE070E080E090E00E940E
:1010D000940181E08093790220E042E060E18BEAB4
:1010E00092E00E94BF0561E08BEA92E00E94B904A1
:1010F0008BE39FE10197F1F784EFC82EDD24D394B1
:10110000E12CF12C90E6892E9AEE992EA12CB12C8F
:101110000E948801672B682B692B41F40E9488018B
:10112000623071058105910508F40BC10E948801A8
:101130006093C2017093C3018093C4019093C50171
:101140004090BE015090BF016090C0017090C101FD
:10115000641575058605970540F46093BE0170938C
:10116000BF018093C0019093C1014090BE01509097
:10117000BF016090C0017090C1019B01AC012419B6
:1011800035094609570929013A013AEF4316510436
:101190006104710408F4D5C06093BE017093BF016F
:1011A0008093C0019093C101C0927102D0927202EB
:1011B000E0927302F092740210927502109276021D
:1011C00010927702109278028091690290916A02DF
:1011D000A0916B02B0916C0280936D0290936E02AD
:1011E000A0936F02B09370020E948801609369021D
:1011F00070936A0280936B0290936C020E94880144
:101200006093650270936602809367029093680210
:101210000E9488012B013C016AE471E08091A502E3
:101220009091A6020E94BB012AE041E050E060E0FC
:1012300070E08091A5029091A6020E94D00161E524
:1012400071E08091A5029091A6020E94BB012AE064
:10125000B301A2018091A5029091A6020E94D00143
:1012600063E571E08091A5029091A6020E94BB0106
:101270008091690290916A02A0916B02B0916C0218
:10128000B301A201481B590B6A0B7B0B2AE080912A
:10129000A5029091A6020E94D00163E571E08091C1
:1012A000A5029091A6020E94BB0140916902509153
:1012B0006A0260916B0270916C0280916D02909154
:1012C0006E02A0916F02B0917002481B590B6A0B1D
:1012D0007B0B2AE08091A5029091A6020E94D0018A
:1012E00065E571E08091A5029091A6020E94BB0184
:1012F0000E948801AB01BC012AE08091A502909177
:10130000A6020E94D0016090A5027090A60267E537
:1013100071E0C3010E94BB0167E471E0C3010E9458
:10132000BB0162E070E080E090E00E9494010E94C6
:1013300088016093690270936A0280936B029093B4
:101340006C020E948801A50194010E94B109BA01B2
:10135000A9012AE08BEA92E00E94D0010E947E015E
:10136000D7CEA1E21A2EAA1BBB1BFD010DC0AA1FDE
:10137000BB1FEE1FFF1FA217B307E407F50720F0FE
:10138000A21BB30BE40BF50B661F771F881F991F79
:101390001A9469F760957095809590959B01AC01C2
:1013A000BD01CF010895EE0FFF1F0590F491E02DD0
:1013B000099481E090E0F8940C94DE09F894FFCF52
:1013C0000000000015018200AD005C01DE00BC00E1
:1013D000D000000000006504350495040F042D04BE
:1013E0001E04100400000000D00382009504940441
:1013F000BF05BC03A5059804564D4450565F317C8B
:10140000315F564D4450560D0A00564D4450455FCD
:0E141000003A323A007C005F564D44504500D1
:00000001FF
