:100000000C9458000C9480000C9480000C94800098
:100010000C9480000C9480000C9480000C94800060
:100020000C9480000C9480000C9480000C94800050
:100030000C9480000C9480000C9480000C94800040
:100040000C9478060C9480000C9446060C942006C0
:100050000C9480000C9480000C9480000C94800020
:100060000C94C2060C9480000000000025002800BB
:100070002B00040404040404040402020202020229
:10008000030303030303010204081020408001025C
:1000900004081020010204081020000000080002DB
:1000A0000100000304070000000000000000F0074A
:1000B00011241FBECFEFD8E0DEBFCDBF11E0A0E01E
:1000C000B1E0E6E0F4E102C005900D92AA37B10775
:1000D000D9F723E0AAE7B1E001C01D92A330B2072F
:1000E000E1F710E0C8E5D0E004C02197FE010E94CE
:1000F000F609C735D107C9F70E945C080C94010ABC
:100100000C94000080E480937C0080917A008064ED
:1001100080937A0080917A0086FDFCCF80917800F0
:100120002091790090E0922B08953091360231327F
:1001300008F04BC0809112028111FCCF90913502E2
:1001400022E02093120221E0209311022FEF20934E
:10015000100210920F0230930E02E5E1F2E0AEEED3
:10016000B1E020E0321721F041914D932F5FFACF9B
:100170001092ED012091ED01990F922B9093ED01DA
:100180009091EC01913061F41092EC019091ED01AD
:100190009093BB009091BC0093FDF8CF95EC01C00B
:1001A00095EE9093BC00909112029230E1F3909101
:1001B00010029F3F79F080911002803241F08091CF
:1001C0001002803331F084E005C081E003C082E09A
:1001D00001C083E0109214021092360210921302B2
:1001E0000895CF92DF92EF92FF920F931F93CF93D8
:1001F000DF936C017A018B01C0E0D0E0CE15DF0502
:1002000081F0D8016D918D01D601ED91FC910190A5
:10021000F081E02DC6010995892B11F02196EECFD2
:100220007E01C701DF91CF911F910F91FF90EF9059
:10023000DF90CF900895FC01538D448D252F30E041
:10024000842F90E0821B930B541710F0CF960895E3
:1002500001970895FC01918D828D981761F0828D30
:10026000DF01A80FB11D5D968C91928D9F5F9F73EA
:10027000928F90E008958FEF9FEF0895FC01918D8C
:10028000828D981731F0828DE80FF11D858D90E0F9
:1002900008958FEF9FEF0895FC01918D228D892F96
:1002A00090E0805C9F4F821B91098F73992708957E
:1002B0008BE392E00E944C0121E0892B09F420E0BD
:1002C000822F0895FC01848DDF01A80FB11DA35A70
:1002D000BF4F2C91848D90E001968F739927848F66
:1002E000A689B7892C93A089B1898C918370806489
:1002F0008C93938D848D981306C00288F389E02D2A
:1003000080818F7D80830895EF92FF920F931F93DA
:10031000CF93DF93EC0181E0888F9B8D8C8D9813B8
:1003200005C0E889F989808185FD26C0F62E0B8DF0
:1003300010E00F5F1F4F0F731127E02E8C8DE81216
:100340000CC00FB607FCFACFE889F989808185FFD8
:10035000F5CFCE010E946201F1CF8B8DFE01E80F37
:10036000F11DE35AFF4FF0829FB7F8940B8FEA8993
:10037000FB89808180620AC09FB7F894EE89FF896B
:100380006083E889F98980818370806480839FBF5E
:1003900081E090E0DF91CF911F910F91FF90EF905E
:1003A0000895CF93DF93EC01888D8823C9F0EA8903
:1003B000FB89808185FD05C0A889B9898C9186FD5E
:1003C0000FC00FB607FCF5CF808185FFF2CFA8895B
:1003D000B9898C9185FFEDCFCE010E946201E7CFF4
:1003E000DF91CF91089580E090E0892B29F00E9461
:1003F000580181110C940000089590E0FC01E6562C
:10040000FF4F2491FC01EA57FF4F3491FC01EE5855
:10041000FF4FE491EE2309F43CC0222339F123304D
:1004200091F038F42130A9F0223001F584B58F7DA8
:1004300012C0273091F02830A1F02430B9F4809117
:1004400080008F7D03C0809180008F778093800033
:100450000DC084B58F7784BD09C08091B0008F77BF
:1004600003C08091B0008F7D8093B000F0E0EE0F6C
:10047000FF1FE859FF4FA591B4919FB7F894611100
:1004800004C08C913095382302C0EC913E2B3C93F4
:100490009FBF08953FB7F8948091E4019091E501E2
:1004A000A091E601B091E70126B5A89B05C02F3FBA
:1004B00019F00196A11DB11D3FBFBA2FA92F982F8A
:1004C0008827820F911DA11DB11DBC01CD0142E005
:1004D000660F771F881F991F4A95D1F708958F924D
:1004E0009F92AF92BF92CF92DF92EF92FF926B01F9
:1004F0007C010E944A024B015C01C114D104E10459
:10050000F104F1F00E944A02DC01CB01881999093B
:10051000AA09BB09883E9340A105B10570F321E00B
:10052000C21AD108E108F10888EE880E83E0981E0F
:10053000A11CB11CC114D104E104F10419F7DDCFF1
:10054000FF90EF90DF90CF90BF90AF909F908F90F3
:10055000089521E001C0220F6A95EAF7DC011C969C
:100560002C931C971A965C934E931997ED91FC91DE
:100570000484F585E02D60E0099408950895DC0178
:10058000ED91FC910684F785E02D41E0099581E02D
:1005900090E00895DC01ED91FC910684F785E02D53
:1005A00040E00994CF93DF93CDB7DEB728970FB61D
:1005B000F894DEBF0FBECDBFFC0180910001909189
:1005C0000101A0910201B091030189839A83AB8359
:1005D000BC838091040190910501A0910601B09126
:1005E00007018D839E83AF83B8878781481710F0FA
:1005F0004FEF480F908550E0DE01A40FB51F9031FA
:1006000029F4843019F415969C9102C011969C919E
:10061000690F6068CF0128960FB6F894DEBF0FBE51
:10062000CDBFDF91CF910C94CA0261E00E94CA0253
:100630008BE39FE10197F1F708950F931F93CF93F9
:10064000DF93EC01423018F08C8188608C834F83FB
:100650006887222329F0413019F48C8184608C83CF
:1006600064E670E080E090E00E946F026C8164FDBF
:1006700031C0E881F9810684F785E02D42E063E02E
:10068000CE0109958BE496E40197F1F7E881F981B1
:100690000684F785E02D42E063E0CE01099503E58D
:1006A00012E0C8010197F1F7E881F9810684F78526
:1006B000E02D42E063E0CE010995C8010197F1F712
:1006C000E881F9810684F785E02D42E062E0CE0101
:1006D000099517C06062CE010E94CA028BE496E4BD
:1006E0000197F1F76C816062CE010E94CA0203E5B6
:1006F00012E0C8010197F1F76C816062CE010E949F
:10070000CA02C8010197F1F76C816062CE010E94B4
:10071000CA028BEE90E00197F1F784E08D836CE0E4
:10072000CE010E94CA02CE010E94150382E08E8390
:1007300066E0CE010E94CA02E881F9810484F58551
:10074000E02D6FEFCE01DF91CF911F910F910994B2
:100750000895089585ED8093BC008091BC0084FDD0
:10076000FCCF1092120208954091BA01262F30E07A
:10077000240F311D21323105DCF420911202243086
:10078000C9F4FC0180E090E0861758F43091BA017A
:100790002191DC01A656BE4FA30FB11D2C930196EB
:1007A000F3CF8091BA01680F6093BA0180E0089599
:1007B00081E0089582E008950895E091E20180913A
:1007C000E101E81730F4F0E0E658FE4F808190E058
:1007D00008958FEF9FEF08959091E2018091E101DC
:1007E000981750F4E92FF0E0E658FE4F208130E0F2
:1007F0009F5F9093E20102C02FEF3FEFC901089580
:100800008091E10190E02091E201821B910908951D
:10081000CF92DF92EF92FF920F931F93CF93DF93CC
:100820007C01CB018A0120911302222389F0EB0184
:100830006B01C40ED51ECC15DD0569F06991D70199
:10084000ED91FC910190F081E02DC7010995F3CF66
:10085000642F0E94B403C801DF91CF911F910F91C3
:10086000FF90EF90DF90CF900895CF93DF931F928A
:10087000CDB7DEB76983209113022223D1F02091F6
:100880003602203240F021E030E0FC013383228345
:1008900080E090E015C080911402E82FF0E0EB5E5C
:1008A000FD4F998190838F5F80931402809336026D
:1008B00005C061E0CE0101960E94B40381E090E0A2
:1008C0000F90DF91CF910895FC0123812223B1F095
:1008D0008181682B6083828191E0909313028093E1
:1008E0003502109214021092360288ED92E00E94B6
:1008F00035040E949500282F30E002C020E030E04F
:1009000081E090E0232B11F080E090E00895EF92D9
:10091000FF920F931F93CF938C01FC0184E0C0E002
:1009200060FF02C09589C92B66958150319681116F
:10093000F7CF413011F4F8014489F8018585C82BBF
:10094000C42B7801FEE0EF0EF11CF80162896C2BDC
:10095000C7010E946404F801628960956C23C70195
:10096000CF911F910F91FF90EF900C9464040F931F
:100970001F93CF93DF93062F0F70423019F440E09E
:10098000602F0EC0142FEC0170E084E07595679520
:100990008A95E1F7CE010E948704412F602FCE0196
:1009A000DF91CF911F910F910C948704FC018485F6
:1009B0008823A9F0218532852115310519F46111AB
:1009C00006C007C02130310521F4611102C08587BE
:1009D00001C015866585CF010E960C9464040895B8
:1009E000EF92FF920F931F93CF93DF93EC01062FAB
:1009F000F42EE22E8B85888B1092E2011092E10199
:100A000010921402109236021092120211E010930A
:100A100011021092EC0161E082E10E94FD0161E0AF
:100A200083E10E94FD018091B9008E7F8093B9001F
:100A30008091B9008D7F8093B90088E48093B800DD
:100A400085E48093BC008DEB92E09093E00180936D
:100A5000DF018EEB92E09093DE018093DD018889C7
:100A600010931302809335021092140210923602F2
:100A70000E94950091E0811190E0998B811105C051
:100A800088ED92E00E94EC038E878989882339F0F3
:100A90001F861C8260E0CE010E960E9464042E2DFB
:100AA0004F2D602FCE01DF91CF911F910F91FF90BD
:100AB000EF900C941D03089580E090E00895611577
:100AC000710579F0FB0101900020E9F73197AF0142
:100AD000461B570BDC01ED91FC910280F381E02D68
:100AE000099480E090E008954F925F926F927F9218
:100AF0008F929F92AF92BF92CF92DF92EF92FF922E
:100B00000F931F93CF93DF93CDB7DEB7A1970FB6A7
:100B1000F894DEBF0FBECDBF8C016A017B0177FF69
:100B20002FC0DC01ED91FC910190F081E02D6DE290
:100B300009955C0122273327A9012C193D094E098B
:100B40005F0919A2FE01B1967F019AE0492E512C4E
:100B5000612C712CCA01B901A30192010E94C00944
:100B6000605DD7016E937D01211531054105510569
:100B700089F7BD01C8010E945F058A0D9B1D1EC03B
:100B80009A01AB0119A2FE01B1967F018AE0882E7D
:100B9000912CA12CB12CCA01B901A50194010E948C
:100BA000C009605DD7016E937D01211531054105B6
:100BB000510589F7BD01C8010E945F05A1960FB6D6
:100BC000F894DEBF0FBECDBFDF91CF911F910F9183
:100BD000FF90EF90DF90CF90BF90AF909F908F905D
:100BE0007F906F905F904F900895CF93DF932FB7D2
:100BF000F894609137027091380280913902909197
:100C00003A022FBFC4EED2E020E63AEE40E050E0D8
:100C10000E94C0093983288341E06AE08A819B8170
:100C20000E94D20248815981052E000C660B770B79
:100C30008A819B81DF91CF910C9474050E94FC09FD
:100C40001F920F920FB60F9211242F933F934F9341
:100C50005F936F937F938F939F93AF93BF93EF9324
:100C6000FF938BE392E00E946201FF91EF91BF91AD
:100C7000AF919F918F917F916F915F914F913F9134
:100C80002F910F900FBE0F901F9018951F920F92EB
:100C90000FB60F9211242F938F939F93EF93FF938F
:100CA000E0914B02F0914C028081E0915102F09171
:100CB000520282FD12C09081809154028F5F8F7327
:100CC00020915502821751F0E0915402F0E0E55C6A
:100CD000FD4F958F8093540201C08081FF91EF9169
:100CE0009F918F912F910F900FBE0F901F9018958D
:100CF0001F920F920FB60F9211242F933F938F9351
:100D00009F93AF93BF938091370290913802A09147
:100D10003902B0913A023091E30123E0230F2D37DD
:100D200020F40196A11DB11D05C026E8230F0296EF
:100D3000A11DB11D2093E3018093370290933802E7
:100D4000A0933902B0933A028091E4019091E501B9
:100D5000A091E601B091E7010196A11DB11D80931C
:100D6000E4019093E501A093E601B093E701BF9100
:100D7000AF919F918F913F912F910F900FBE0F9048
:100D80001F9018951F920F920FB60F9211242F9358
:100D90003F934F935F936F937F938F939F93AF9303
:100DA000BF93EF93FF938091B900887F803609F459
:100DB0009CC068F5883209F45BC090F4803109F476
:100DC00054C038F4882309F4F6C0883009F44DC0C3
:100DD000F6C0883109F44CC0803209F45DC0EFC020
:100DE000803409F468C048F4803309F455C088336E
:100DF00009F0E5C080931002D8C0803509F44FC0D7
:100E0000883509F45DC0883409F0D9C0D6C0883966
:100E100009F4C7C0A8F4883709F467C038F48836E5
:100E200009F463C0803709F460C0C9C0883809F488
:100E3000B8C0803909F45FC0803809F0C0C05BC019
:100E4000803B09F486C038F4803A09F466C0883AD9
:100E500009F47FC0B4C0803C09F4A7C0883C09F401
:100E6000A4C0883B09F48AC0AAC08091ED0110C0DB
:100E700090910F0280910E02981770F5E0910F0289
:100E800081E08E0F80930F02F0E0E251FE4F8081EF
:100E90008093BB0085EC86C0809310028EC0E091E9
:100EA0000F0281E08E0F80930F028091BB00F0E073
:100EB000E251FE4F808390910F0280910E026EC02E
:100EC000E0910F0281E08E0F80930F028091BB00B2
:100ED000F0E0E251FE4F80838091110281116DC0DC
:100EE00081E08093EC0184EA61C083E08093120288
:100EF0001092DC01CFCF8091DC01803208F051C02C
:100F0000E091DC0181E08E0F8093DC018091BB00D9
:100F1000F0E0E454FE4F8083BDCF85EC8093BC00AD
:100F2000109212028091DC01803230F4E091DC01F9
:100F3000F0E0E454FE4F10826091DC0170E0E0913B
:100F4000DD01F091DE018CEB91E009951092DC015E
:100F500036C084E0809312021092BB011092BA0155
:100F6000E091DF01F091E00109958091BA018111D2
:100F700005C081E08093BA0110929A01E091BB0113
:100F800081E08E0F8093BB01F0E0E656FE4F80813A
:100F90008093BB009091BB018091BA01981708F42F
:100FA00079CF85E88093BC000AC085EC8093BC00B3
:100FB0001092120204C0109210020E94AA03FF9124
:100FC000EF91BF91AF919F918F917F916F915F91C1
:100FD0004F913F912F910F900FBE0F901F9018953A
:100FE000CF93DF93EBE3F2E01382128288EE93E07B
:100FF000A0E0B0E084839583A683B7832CE031E042
:101000003183208325EC30E03587248724EC30E0E1
:101010003787268720EC30E0318B208B21EC30E0C5
:10102000338B228B22EC30E0358B248B26EC30E0A6
:10103000378B268B118E128E138E148EE8EDF2E014
:101040001382128284839583A683B7838EE191E015
:1010500091838083CAEED2E01B821A8280E391E002
:1010600099838883188A8FEF8F871E86198A87E273
:101070008B871C861D861A86198684E08A8B82E0FF
:101080008B8B81E08C8B80E18D8B80E28E8B80E47A
:101090008F8B80E8888F40E050E063E0CE010E94B3
:1010A000A902D093E902C093E802D093E702C0936B
:1010B000E602DF91CF910895789484B5826084BD73
:1010C00084B5816084BD85B5826085BD85B581604C
:1010D00085BD80916E00816080936E0010928100CA
:1010E0008091810082608093810080918100816085
:1010F0008093810080918000816080938000809146
:10110000B10084608093B1008091B00081608093D1
:10111000B00080917A00846080937A0080917A0098
:10112000826080937A0080917A00816080937A0057
:1011300080917A00806880937A001092C100E091DB
:101140004B02F0914C0282E08083E0914702F091E3
:1011500048021082E0914902F0914A028FEC8083AC
:1011600010925302E0914F02F091500286E080838A
:10117000E0914D02F0914E02808180618083E09188
:101180004D02F0914E02808188608083E0914D0293
:10119000F0914E02808180688083E0914D02F09151
:1011A0004E0280818F7D80838091E8029091E902D8
:1011B000DC01ED91FC910084F185E02D20E042E01E
:1011C00060E109958091E8029091E9020E9415037F
:1011D00040E060E08091E8029091E9020E94D20232
:1011E00060E471E08091E8029091E9020E945F055D
:1011F000C4E064EF71E080E090E00E946F0240E0A4
:101200006C2F8091E8029091E9020E94D20265E47D
:1012100071E08091E8029091E9020E945F05CF5F42
:10122000CC3039F78091E8029091E9020E941503D1
:1012300040E060E08091E8029091E9020E94D202D1
:1012400067E471E08091E8029091E9020E945F05F5
:1012500060ED77E080E090E00E946F028091E8020C
:101260009091E9020E94150368E571E08091E8021F
:101270009091E9020E945F0541E060E08091E60202
:101280009091E7020E94D20269E671E08091E60245
:101290009091E7020E945F0541E06FE08091E602D5
:1012A0009091E7020E94D20264E771E08091E60229
:1012B0009091E7020E945F05C9E0D0E00E94F50529
:1012C0000E948200883C91050CF043C08091EA01A5
:1012D0009091EB0101969093EB018093EA010E94BB
:1012E000F5050E948200883C9105CCF38091EA01CB
:1012F0009091EB01BE010E94AC09892B51F540E0B1
:101300006AE08AEE92E00E94D2024091E801509198
:10131000E9014F5F5F4F5093E9014093E801052ECB
:10132000000C660B770B8BE392E00E94740566E776
:1013300071E08BE392E00E945F054091E8015091DB
:10134000E901052E000C660B770B8AEE92E00E94F5
:1013500074050E94F301B2CF97FB072E16F4009498
:1013600007D077FD09D00E94E20907FC05D03EF4C2
:10137000909581959F4F0895709561957F4F089541
:10138000A1E21A2EAA1BBB1BFD010DC0AA1FBB1F89
:10139000EE1FFF1FA217B307E407F50720F0A21BFB
:1013A000B30BE40BF50B661F771F881F991F1A9468
:1013B00069F760957095809590959B01AC01BD0192
:1013C000CF010895AA1BBB1B51E107C0AA1FBB1F79
:1013D000A617B70710F0A61BB70B881F991F5A95C1
:1013E000A9F780959095BC01CD010895EE0FFF1FE0
:1013F0000590F491E02D099481E090E0F8940C942C
:06140000010AF894FFCF81
:101406000040145400401050000000008401F10018
:101416001B01D1014C012A013E01000000003504E8
:1014260008045C05DC030004EC03DD030000000097
:10143600BF02F1005C055B05F004A902D604B704FF
:10144600426F6F74002E00426F6F7420636F6D7071
:101456006C657465642121005175616E74697479D7
:10146600203E30202020205200626F6F7420746965
:0A1476006D653E006D000D0A0000D8
:107E0000112484B714BE81FFF0D085E080938100F7
:107E100082E08093C00088E18093C10086E0809377
:107E2000C20080E18093C4008EE0C9D0259A86E02C
:107E300020E33CEF91E0309385002093840096BBD3
:107E4000B09BFECF1D9AA8958150A9F7CC24DD24C4
:107E500088248394B5E0AB2EA1E19A2EF3E0BF2EE7
:107E6000A2D0813461F49FD0082FAFD0023811F036
:107E7000013811F484E001C083E08DD089C08234E0
:107E800011F484E103C0853419F485E0A6D080C0E4
:107E9000853579F488D0E82EFF2485D0082F10E0AE
:107EA000102F00270E291F29000F111F8ED06801E7
:107EB0006FC0863521F484E090D080E0DECF843638
:107EC00009F040C070D06FD0082F6DD080E0C81688
:107ED00080E7D80618F4F601B7BEE895C0E0D1E017
:107EE00062D089930C17E1F7F0E0CF16F0E7DF06D8
:107EF00018F0F601B7BEE89568D007B600FCFDCFD4
:107F0000A601A0E0B1E02C9130E011968C91119780
:107F100090E0982F8827822B932B1296FA010C0160
:107F200087BEE89511244E5F5F4FF1E0A038BF0790
:107F300051F7F601A7BEE89507B600FCFDCF97BE46
:107F4000E89526C08437B1F42ED02DD0F82E2BD052
:107F50003CD0F601EF2C8F010F5F1F4F84911BD097
:107F6000EA94F801C1F70894C11CD11CFA94CF0C13
:107F7000D11C0EC0853739F428D08EE10CD085E9AC
:107F80000AD08FE07ACF813511F488E018D01DD067
:107F900080E101D065CF982F8091C00085FFFCCF94
:107FA0009093C60008958091C00087FFFCCF809118
:107FB000C00084FD01C0A8958091C6000895E0E648
:107FC000F0E098E1908380830895EDDF803219F02E
:107FD00088E0F5DFFFCF84E1DECF1F93182FE3DFCA
:107FE0001150E9F7F2DF1F91089580E0E8DFEE27F6
:047FF000FF270994CA
:027FFE00040479
:0400000300007E007B
:00000001FF