:100000000C9458000C9480000C9480000C94800098
:100010000C9480000C9480000C9480000C94800060
:100020000C9480000C9480000C9480000C94800050
:100030000C9480000C9480000C9480000C94800040
:100040000C9430050C9480000C9404030C94DE0294
:100050000C9480000C9480000C9480000C94800020
:100060000C94A4060C9480000000000025002800D9
:100070002B00040404040404040402020202020229
:10008000030303030303010204081020408001025C
:1000900004081020010204081020000000080002DB
:1000A0000100000304070000000000000000D20768
:1000B00011241FBECFEFD8E0DEBFCDBF11E0A0E01E
:1000C000B1E0EAECF3E102C005900D92A237B1076E
:1000D000D9F722E0A2E7B1E001C01D92AB3DB20723
:1000E000E1F710E0C8E5D0E004C02197FE010E94CE
:1000F000D809C735D107C9F70E943E080C94E30917
:100100000C94000080E480937C0080917A008064ED
:1001100080937A0080917A0086FDFCCF80917800F0
:100120002091790090E0922B0895CF92DF92EF9288
:10013000FF920F931F93CF93DF936C017A018B0192
:10014000C0E0D0E0CE15DF0589F0D8016D918D01BA
:10015000D601ED91FC910190F081E02DC601099549
:10016000892B11F47E0102C02196ECCFC701DF91EB
:10017000CF911F910F91FF90EF90DF90CF90089556
:10018000FC01538D448D252F30E0842F90E0821B9D
:10019000930B541710F0CF96089501970895FC0122
:1001A000918D828D981761F0828DDF01A80FB11DAE
:1001B0005D968C91928D9F5F9F73928F90E00895D2
:1001C0008FEF9FEF0895FC01918D828D981731F08C
:1001D000828DE80FF11D858D90E008958FEF9FEFE0
:1001E0000895FC01918D228D892F90E0805C9F4FB6
:1001F000821B91098F739927089584EF91E00E94E3
:10020000F10021E0892B09F420E0822F0895FC0100
:10021000848DDF01A80FB11DA35ABF4F2C91848D8F
:1002200090E001968F739927848FA689B7892C93C4
:10023000A089B1898C9180648C93938D848D98135F
:1002400006C00288F389E02D80818F7D8083089528
:10025000EF92FF920F931F93CF93DF93EC0181E016
:10026000888F9B8D8C8D981305C0E889F9898081D2
:1002700085FD24C0F62E0B8D10E00F5F1F4F0F730E
:100280001127E02E8C8DE8120CC00FB607FCFACFB8
:10029000E889F989808185FFF5CFCE010E940701A9
:1002A000F1CF8B8DFE01E80FF11DE35AFF4FF08275
:1002B0000B8FEA89FB898081806207C0EE89FF8904
:1002C0006083E889F98980818064808381E090E09F
:1002D000DF91CF911F910F91FF90EF900895CF93F1
:1002E000DF93EC01888D8823C9F0EA89FB8980813E
:1002F00085FD05C0A889B9898C9186FD0FC00FB610
:1003000007FCF5CF808185FFF2CFA889B9898C9150
:1003100085FFEDCFCE010E940701E7CFDF91CF919E
:10032000089580E090E0892B29F00E94FD00811162
:100330000C94000008953FB7F89480917201909159
:100340007301A0917401B091750126B5A89B05C0F9
:100350002F3F19F00196A11DB11D3FBFBA2FA92F44
:10036000982F8827820F911DA11DB11DBC01CD01C1
:1003700042E0660F771F881F991F4A95D1F70895AD
:100380006115710579F0FB0101900020E9F73197C3
:10039000AF01461B570BDC01ED91FC910280F3810C
:1003A000E02D099480E090E008954F925F926F9263
:1003B0007F928F929F92AF92BF92CF92DF92EF92F5
:1003C000FF920F931F93CF93DF93CDB7DEB7A19723
:1003D0000FB6F894DEBF0FBECDBF8C016A017B0162
:1003E00077FF2FC0DC01ED91FC910190F081E02DB1
:1003F0006DE209955C0122273327A9012C193D09DB
:100400004E095F0919A2FE01B1967F019AE0492EBB
:10041000512C612C712CCA01B901A30192010E94D7
:10042000A209605DD7016E937D012115310541055B
:10043000510589F7BD01C8010E94C0018A0D9B1DAD
:100440001EC09A01AB0119A2FE01B1967F018AE09C
:10045000882E912CA12CB12CCA01B901A5019401BF
:100460000E94A209605DD7016E937D0121153105BF
:100470004105510589F7BD01C8010E94C001A1963F
:100480000FB6F894DEBF0FBECDBFDF91CF911F91A5
:100490000F91FF90EF90DF90CF90BF90AF909F9023
:1004A0008F907F906F905F904F900895CF93DF93E0
:1004B0002FB7F8946091C1017091C2018091C3017E
:1004C0009091C4012FBFC1EDD1E020E63AEE40E0AB
:1004D00050E00E94A2093983288341E06AE08A81C2
:1004E0009B810E947A0548815981052E000C660B7C
:1004F000770B8A819B81DF91CF910C94D5010E946B
:10050000DE092091C0019091BF01213208F04AC05C
:1005100080919C018111FCCF32E030939C0131E04D
:1005200030939B013FEF30939A01109299012093F1
:100530009801AFE9B1E048E751E0FA013E2F341BE2
:10054000321718F43D913193F9CF10927701209131
:100550007701990F922B90937701909176019130CA
:1005600061F410927601909177019093BB00909185
:10057000BC0093FDF8CF95EC01C095EE9093BC00C4
:1005800090919C019230E1F390919A019F3F79F014
:1005900080919A01803241F080919A01803331F04C
:1005A00084E005C081E003C082E001C083E01092D6
:1005B0009E011092C00110929D0108951F920F920A
:1005C0000FB60F9211242F933F934F935F936F9326
:1005D0007F938F939F93AF93BF93EF93FF9384EF9A
:1005E00091E00E940701FF91EF91BF91AF919F9120
:1005F0008F917F916F915F914F913F912F910F90CC
:100600000FBE0F901F9018951F920F920FB60F926A
:1006100011242F938F939F93EF93FF93E091040204
:10062000F09105028081E0910A02F0910B0282FDB7
:1006300012C0908180910D028F5F8F7320910E0206
:10064000821751F0E0910D02F0E0EC50FE4F958FD3
:1006500080930D0201C08081FF91EF919F918F9156
:100660002F910F900FBE0F901F90189590E0FC01F6
:10067000E656FF4F3491FC01EA57FF4F2491FC01ED
:10068000EE58FF4FE491EE2309F43BC0332339F1D8
:10069000333091F038F43130A9F0323001F584B5BF
:1006A0008F7D12C0373091F03830A1F03430B9F47A
:1006B000809180008F7D03C0809180008F77809330
:1006C00080000DC084B58F7784BD09C08091B000D3
:1006D0008F7703C08091B0008F7D8093B000F0E0F1
:1006E000EE0FFF1FE859FF4FA591B4918FB7F89413
:1006F000EC91611103C020952E2301C02E2B2C9369
:100700008FBF08958F929F92AF92BF92CF92DF9248
:10071000EF92FF926B017C010E949B014B015C01F7
:10072000C114D104E104F104F1F00E949B01DC0149
:10073000CB0188199909AA09BB09883E9340A105F4
:10074000B10570F321E0C21AD108E108F10888EE82
:10075000880E83E0981EA11CB11CC114D104E104D1
:10076000F10419F7DDCFFF90EF90DF90CF90BF90AD
:10077000AF909F908F90089521E001C0220F6A955D
:10078000EAF7DC011C962C931C971A965C934E9307
:100790001997ED91FC910484F585E02D60E00994B2
:1007A000DC01ED91FC910684F785E02D41E009958F
:1007B00081E090E00895DC01ED91FC910684F785DD
:1007C000E02D40E009940895089585ED8093BC00E4
:1007D0008091BC0084FDFCCF10929C010895409153
:1007E000B302262F30E0240F311D21323105DCF415
:1007F00020919C012430C9F4FC0180E090E0861730
:1008000058F43091B3022191DC01AF56BD4FA30FD4
:10081000B11D2C930196F3CF8091B302680F6093C2
:10082000B30280E0089581E0089582E0089508957C
:1008300081E090E03091D9022091D802321710F473
:1008400080E090E091958195910908958091D90279
:100850009091D802891730F48F5F8093D90280E09D
:1008600090E008958FEF9FEF08958091D80290E077
:100870002091D902821B91090895CF92DF92EF92C5
:10088000FF920F931F93CF93DF937C01262F972F17
:100890008A0180919D01882391F0C62FD72F6E0188
:1008A000C40ED51ECC15DD0571F06991D701ED910F
:1008B000FC910190F081E02DC7010995F3CF642FE1
:1008C000822F0E94EF03C801DF91CF911F910F91FA
:1008D000FF90EF90DF90CF900895CF93DF931F921A
:1008E000CDB7DEB7698320919D012223D1F02091FD
:1008F000C001203240F021E030E0FC01338322834C
:1009000080E090E015C080919E01E82FF0E0E15674
:10091000FE4F998190838F5F80939E018093C001E9
:1009200005C061E0CE0101960E94EF0381E090E0F6
:100930000F90DF91CF910895089580E090E00895A1
:10094000FC0123812223B9F0918190956923608372
:10095000828191E090939D018093BF0110929E014E
:100960001092C00185EC91E00E946D040E9481020A
:10097000282F30E002C020E030E081E090E0232B1F
:1009800011F080E090E00895EF92FF920F931F9393
:10099000CF938C01FC01759684E0C0E060FF02C03B
:1009A0009081C92B6695815031968111F7CF4130E6
:1009B00011F4F8014489F8018585C82BC42B78010E
:1009C000FEE0EF0EF11CF80162896C2BC7010E945A
:1009D000A004F801628960956C23C701CF911F9133
:1009E0000F91FF90EF900C94A0040F931F93CF935F
:1009F000DF93062F0F70423019F440E0602F10C0D3
:100A0000142F262FEC0130E0B90184E0759567952D
:100A10008A95E1F7CE010E94C404412F602FCE01D8
:100A2000DF91CF911F910F910C94C404FC01848538
:100A30008823A9F0218532852115310519F461112A
:100A400006C007C02130310521F4611102C085873D
:100A500001C015866585CF010E960C94A0040895FB
:100A60001F920F920FB60F9211242F933F938F93E3
:100A70009F93AF93BF938091C1019091C201A091C8
:100A8000C301B091C4013091DA0223E0230F2D3766
:100A900020F40196A11DB11D05C026E8230F029682
:100AA000A11DB11D2093DA028093C1019093C20170
:100AB000A093C301B093C40180917201909173011E
:100AC000A0917401B09175010196A11DB11D809393
:100AD000720190937301A0937401B0937501BF915B
:100AE000AF919F918F913F912F910F900FBE0F90DB
:100AF0001F901895CF93DF93CDB7DEB728970FB629
:100B0000F894DEBF0FBECDBFFC011D8280E48E8352
:100B100094E19F8394E5988719828A8380E18B838F
:100B200080E58C838781481710F04FEF480F908540
:100B300050E0DE01A40FB51F903129F4843019F480
:100B400011969C9102C015969C91690F6068CF0127
:100B500028960FB6F894DEBF0FBECDBFDF91CF91C0
:100B60000C94DB0361E00E94DB038BE39FE10197C0
:100B7000F1F708950F931F93CF93DF93EC01423069
:100B800018F08C8188608C834F836887222329F03A
:100B9000413019F48C8184608C8364E670E080E0DD
:100BA00090E00E9482036C8164FD31C0E881F9818C
:100BB0000684F785E02D42E063E0CE0109958BE4E1
:100BC00096E40197F1F7E881F9810684F785E02D35
:100BD00042E063E0CE01099503E512E0C801019708
:100BE000F1F7E881F9810684F785E02D42E063E0C2
:100BF000CE010995C8010197F1F7E881F9810684D2
:100C0000F785E02D42E062E0CE01099517C06062F1
:100C1000CE010E94DB038BE496E40197F1F76C812F
:100C20006062CE010E94DB0303E512E0C801019778
:100C3000F1F76C816062CE010E94DB03C80101976D
:100C4000F1F76C816062CE010E94DB038BEE90E0D5
:100C50000197F1F784E08D836CE0CE010E94DB0305
:100C6000CE010E94B20582E08E8366E0CE010E9432
:100C7000DB03E881F9810484F585E02D6FEFCE0177
:100C8000DF91CF911F910F910994EF92FF920F93F3
:100C90001F93CF93DF93EC01062FF42EE22E8B856A
:100CA000888B1092D9021092D80210929E01109255
:100CB000C00110929C0111E010939B0110927601EB
:100CC00061E082E10E94360361E083E10E94360325
:100CD0008091B9008E7F8093B9008091B9008D7F9B
:100CE0008093B90088E48093B80085E48093BC00C9
:100CF000888910939D018093BF0110929E011092EC
:100D0000C0010E94810291E0811190E0998B9923AA
:100D100029F085EC91E00E9426048E87898988233A
:100D200039F01F861C8260E0CE010E960E94A0045E
:100D30002E2D4F2D602FCE01DF91CF911F910F915E
:100D4000FF90EF900C94BA051F920F920FB60F927E
:100D500011242F933F934F935F936F937F938F93C0
:100D60009F93AF93BF93EF93FF938091B900887FD8
:100D7000803609F49CC068F5883209F45BC090F4B1
:100D8000803109F454C038F4882309F4F6C088305F
:100D900009F44DC0F6C0883109F44CC0803209F422
:100DA0005DC0EFC0803409F468C048F4803309F4B2
:100DB00055C0883309F0E5C080939A01D8C08035CA
:100DC00009F44FC0883509F45DC0883409F0D9C0F2
:100DD000D6C0883909F4C7C0A8F4883709F467C0B9
:100DE00038F4883609F463C0803709F460C0C9C09C
:100DF000883809F4B8C0803909F45FC0803809F038
:100E0000C0C05BC0803B09F486C038F4803A09F466
:100E100066C0883A09F47FC0B4C0803C09F4A7C01A
:100E2000883C09F4A4C0883B09F48AC0AAC0809118
:100E3000770110C09091990180919801981770F5F1
:100E4000E091990181E08E0F80939901F0E0E858DC
:100E5000FE4F80818093BB0085EC86C080939A0111
:100E60008EC0E091990181E08E0F8093990180916D
:100E7000BB00F0E0E858FE4F80839091990180918B
:100E800098016EC0E091990181E08E0F80939901E5
:100E90008091BB00F0E0E858FE4F808380919B0179
:100EA00081116DC081E08093760184EA61C083E0A6
:100EB00080939C011092D702CFCF8091D7028032CD
:100EC00008F051C0E091D70281E08E0F8093D702E5
:100ED0008091BB00F0E0E954FD4F8083BDCF85ECED
:100EE0008093BC0010929C018091D702803230F434
:100EF000E091D702F0E0E954FD4F10826091D702F3
:100F000070E0E091B502F091B60287EB92E00995AE
:100F10001092D70236C084E080939C011092B402F4
:100F20001092B302E091B102F091B2020995809162
:100F3000B302811105C081E08093B3021092910247
:100F4000E091B40281E08E0F8093B402F0E0EF569E
:100F5000FD4F80818093BB009091B4028091B302D9
:100F6000981708F479CF85E88093BC000AC085EC17
:100F70008093BC0010929C0104C010929A010E94C0
:100F8000E503FF91EF91BF91AF919F918F917F9179
:100F90006F915F914F913F912F910F900FBE0F90E6
:100FA0001F901895CF93DF93E4EFF1E01382128244
:100FB00088EE93E0A0E0B0E084839583A683B783B6
:100FC00024E031E03183208325EC30E0358724872D
:100FD00024EC30E03787268720EC30E0318B208B03
:100FE00021EC30E0338B228B22EC30E0358B248BEC
:100FF00026EC30E0378B268B118E128E138E148EDA
:10100000E5ECF1E01382128284839583A683B78393
:1010100086E191E091838083C7EDD1E01B821A8243
:1010200088E291E099838883188A8FEF8F871E86E4
:10103000198A87E28B871C861D861A86198684E0AA
:101040008A8B82E08B8B81E08C8B80E18D8B80E2C0
:101050008E8B80E48F8B80E8888F40E050E063E0E7
:10106000CE010E94BC03D093D601C093D501D0938A
:10107000D401C093D301DF91CF910895789484B5C2
:10108000826084BD84B5816084BD85B5826085BD84
:1010900085B5816085BD80916E00816080936E0012
:1010A0001092810080918100826080938100809104
:1010B00081008160809381008091800081608093B5
:1010C00080008091B10084608093B1008091B00075
:1010D00081608093B00080917A00846080937A0070
:1010E00080917A00826080937A0080917A0081609A
:1010F00080937A0080917A00806880937A001092C1
:10110000C100E0910402F091050282E08083E09149
:101110000002F09101021082E0910202F0910302BC
:101120008FEC808310920C02E0910802F09109028A
:1011300086E08083E0910602F09107028081806161
:101140008083E0910602F0910702808188608083AD
:10115000E0910602F0910702808180688083E0912F
:101160000602F091070280818F7D80838091D501F6
:101170009091D601DC01ED91FC910084F185E02D88
:1011800020E042E060E109958091D5019091D6017F
:101190000E94B20540E060E08091D5019091D601B7
:1011A0000E947A0568E371E08091D5019091D601A3
:1011B0000E94C001C4E064EF71E080E090E00E9412
:1011C000820340E06C2F8091D5019091D6010E945E
:1011D0007A056DE371E08091D5019091D6010E946E
:1011E000C001CF5FCC3039F78091D5019091D60105
:1011F0000E94B20540E060E08091D5019091D60157
:101200000E947A056FE371E08091D5019091D6013B
:101210000E94C00160ED77E080E090E00E948203D0
:101220008091D5019091D6010E94B20560E571E0F0
:101230008091D5019091D6010E94C00141E060E00B
:101240008091D3019091D4010E947A0561E671E00A
:101250008091D3019091D4010E94C00141E06FE0E0
:101260008091D3019091D4010E947A056CE671E0DF
:101270008091D3019091D4010E94C001C9E0D0E0D7
:101280000E9456020E948200883C91050CF043C0E7
:101290008091F2019091F30101969093F301809374
:1012A000F2010E9456020E948200883C9105CCF314
:1012B0008091F2019091F301BE010E948E09892B69
:1012C00051F540E06AE087ED91E00E947A05409197
:1012D000F0015091F1014F5F5F4F5093F101409346
:1012E000F001052E000C660B770B84EF91E00E9455
:1012F000D5016EE671E084EF91E00E94C00140915B
:10130000F0015091F101052E000C660B770B87ED73
:1013100091E00E94D5010E949101B2CF97FB072E68
:1013200016F4009407D077FD09D00E94C40907FC89
:1013300005D03EF4909581959F4F089570956195E5
:101340007F4F0895A1E21A2EAA1BBB1BFD010DC001
:10135000AA1FBB1FEE1FFF1FA217B307E407F50765
:1013600020F0A21BB30BE40BF50B661F771F881F41
:10137000991F1A9469F760957095809590959B01D7
:10138000AC01BD01CF010895AA1BBB1B51E107C0F1
:10139000AA1FBB1FA617B70710F0A61BB70B881F05
:1013A000991F5A95A9F780959095BC01CD01089594
:1013B000EE0FFF1F0590F491E02D099481E090E07D
:0A13C000F8940C94E309F894FFCFB1
:1013CA000000000028019500C0006F01F100CF0065
:1013DA00E300000000006D043D049D041704350479
:1013EA002604180400000000D00395009D049C0404
:1013FA004506BC031605F504426F6F74002E0042C1
:10140A006F6F7420636F6D706C6574656421210061
:10141A005175616E74697479203E30202020205203
:10142A0000626F6F742074696D653E006D000D0A6D
:02143A000000B0
:107E0000112484B714BE81FFF0D085E080938100F7
:107E100082E08093C00088E18093C10086E0809377
:107E2000C20080E18093C4008EE0C9D0259A86E02C
:107E300020E33CEF91E0309385002093840096BBD3
:107E4000B09BFECF1D9AA8958150A9F7CC24DD24C4
:107E500088248394B5E0AB2EA1E19A2EF3E0BF2EE7
:107E6000A2D0813461F49FD0082FAFD0023811F036
:107E7000013811F484E001C083E08DD089C08234E0
:107E800011F484E103C0853419F485E0A6D080C0E4
:107E9000853579F488D0E82EFF2485D0082F10E0AE
:107EA000102F00270E291F29000F111F8ED06801E7
:107EB0006FC0863521F484E090D080E0DECF843638
:107EC00009F040C070D06FD0082F6DD080E0C81688
:107ED00080E7D80618F4F601B7BEE895C0E0D1E017
:107EE00062D089930C17E1F7F0E0CF16F0E7DF06D8
:107EF00018F0F601B7BEE89568D007B600FCFDCFD4
:107F0000A601A0E0B1E02C9130E011968C91119780
:107F100090E0982F8827822B932B1296FA010C0160
:107F200087BEE89511244E5F5F4FF1E0A038BF0790
:107F300051F7F601A7BEE89507B600FCFDCF97BE46
:107F4000E89526C08437B1F42ED02DD0F82E2BD052
:107F50003CD0F601EF2C8F010F5F1F4F84911BD097
:107F6000EA94F801C1F70894C11CD11CFA94CF0C13
:107F7000D11C0EC0853739F428D08EE10CD085E9AC
:107F80000AD08FE07ACF813511F488E018D01DD067
:107F900080E101D065CF982F8091C00085FFFCCF94
:107FA0009093C60008958091C00087FFFCCF809118
:107FB000C00084FD01C0A8958091C6000895E0E648
:107FC000F0E098E1908380830895EDDF803219F02E
:107FD00088E0F5DFFFCF84E1DECF1F93182FE3DFCA
:107FE0001150E9F7F2DF1F91089580E0E8DFEE27F6
:047FF000FF270994CA
:027FFE00040479
:0400000300007E007B
:00000001FF