:100000000C9462000C948A000C948A000C948A0070
:100010000C948A000C948A000C948A000C948A0038
:100020000C948A000C948A000C948A000C948A0028
:100030000C948A000C948A000C948A000C948A0018
:100040000C94DE050C948A000C94AC050C94860587
:100050000C948A000C948A000C948A000C948A00F8
:100060000C9428060C948A0000000000230026004F
:10007000290000000008000201000003040700003E
:1000800000000000000000000000250028002B00F8
:1000900000000000240027002A00040404040404D3
:1000A0000404020202020202030303030303010227
:1000B00004081020408001020408102001020408F6
:1000C0001020560711241FBECFEFD8E0DEBFCDBFF2
:1000D00011E0A0E0B1E0ECE0F3E102C005900D9288
:1000E000AA33B107D9F722E0AAE3B1E001C01D921B
:1000F000A33AB207E1F710E0C2E6D0E004C02197CE
:10010000FE010E947909C136D107C9F70E94B507DF
:100110000C9484090C9400002091E0019091DF017F
:10012000213208F04AC08091BC018111FCCF32E03D
:100130003093BC0131E03093BB013FEF3093BA0103
:100140001092B9012093B801AFEBB1E048E951E05A
:10015000FA013E2F341B321718F43D913193F9CF39
:100160001092970120919701990F922B90939701EC
:1001700090919601913061F41092960190919701BF
:100180009093BB009091BC0093FDF8CF95EC01C01B
:1001900095EE9093BC009091BC019230E1F3909168
:1001A000BA019F3F79F08091BA01803241F080918D
:1001B000BA01803331F084E005C081E003C082E001
:1001C00001C083E01092BE011092E0011092BD01C7
:1001D0000895CF92DF92EF92FF920F931F93CF93E8
:1001E000DF936C017A018B01C0E0D0E0CE15DF0512
:1001F00089F0D8016D918D01D601ED91FC910190AE
:10020000F081E02DC6010995892B11F47E0102C011
:100210002196ECCFC701DF91CF911F910F91FF90F5
:10022000EF90DF90CF900895FC01538D448D252FE2
:1002300030E0842F90E0821B930B541710F0CF9680
:10024000089501970895FC01918D828D981761F0B2
:10025000828DDF01A80FB11D5D968C91928D9F5FFD
:100260009F73928F90E008958FEF9FEF0895FC01A8
:10027000918D828D981731F0828DE80FF11D858D5B
:1002800090E008958FEF9FEF0895FC01918D228DEE
:10029000892F90E0805C9F4F821B91098F73992773
:1002A000089581EE91E00E94450121E0892B09F437
:1002B00020E0822F0895FC01848DDF01A80FB11D7D
:1002C000A35ABF4F2C91848D90E001968F7399278C
:1002D000848FA689B7892C93A089B1898C91806479
:1002E0008C93938D848D981306C00288F389E02D3A
:1002F00080818F7D80830895EF92FF920F931F93EB
:10030000CF93DF93EC0181E0888F9B8D8C8D9813C8
:1003100005C0E889F989808185FD24C0F62E0B8D02
:1003200010E00F5F1F4F0F731127E02E8C8DE81226
:100330000CC00FB607FCFACFE889F989808185FFE8
:10034000F5CFCE010E945B01F1CF8B8DFE01E80F4E
:10035000F11DE35AFF4FF0820B8FEA89FB89808100
:10036000806207C0EE89FF896083E889F98980810E
:100370008064808381E090E0DF91CF911F910F91A5
:10038000FF90EF900895CF93DF93EC01888D882341
:10039000C9F0EA89FB89808185FD05C0A889B989F2
:1003A0008C9186FD0FC00FB607FCF5CF808185FFCD
:1003B000F2CFA889B9898C9185FFEDCFCE010E943B
:1003C0005B01E7CFDF91CF91089580E090E0892B2A
:1003D00029F00E94510181110C940000089583308E
:1003E00081F028F4813099F08230A1F008958730AF
:1003F000A9F08830B9F08430D1F4809180008F7DED
:1004000003C0809180008F7780938000089584B529
:100410008F7702C084B58F7D84BD08958091B00030
:100420008F7703C08091B0008F7D8093B0000895D6
:10043000CF93DF93282F30E0F901EE58FF4F8491DE
:10044000F901E255FF4FD491F901E656FF4FC491EF
:10045000CC2391F081110E94EF01EC2FF0E0EE0F20
:10046000FF1FE859FF4FA591B491EC91ED2381E076
:1004700090E021F480E002C080E090E0DF91CF9135
:1004800008951F93CF93DF93282F30E0F901EE58A2
:10049000FF4F8491F901E255FF4FD491F901E656DF
:1004A000FF4FC491CC23C9F0162F81110E94EF0198
:1004B000EC2FF0E0EE0FFF1FEA57FF4FA591B4912C
:1004C0008FB7F894111105C09C91ED2FE095E923A9
:1004D00002C0EC91ED2BEC938FBFDF91CF911F9178
:1004E00008953FB7F8948091840190918501A0917F
:1004F0008601B091870126B5A89B05C02F3F19F052
:100500000196A11DB11D3FBFBA2FA92F982F882793
:10051000820F911DA11DB11DBC01CD0142E0660FEE
:10052000771F881F991F4A95D1F708958F929F9240
:10053000AF92BF92CF92DF92EF92FF926B017C015C
:100540000E9471024B015C01C114D104E104F10469
:10055000F1F00E947102DC01CB0188199909AA0906
:10056000BB09883E9340A105B10570F321E0C21A92
:10057000D108E108F10888EE880E83E0981EA11CDE
:10058000B11CC114D104E104F10419F7DDCFFF90CF
:10059000EF90DF90CF90BF90AF909F908F90089595
:1005A00021E001C0220F6A95EAF7DC011C962C932A
:1005B0001C971A965C934E931997ED91FC910484C5
:1005C000F585E02D60E00994DC01ED91FC91068455
:1005D000F785E02D41E0099581E090E00895DC0188
:1005E000ED91FC910684F785E02D40E009940F938E
:1005F0001F93CF93DF93EC01423018F08C81886019
:100600008C834F836887222329F0413019F48C8131
:1006100084608C8364E670E080E090E00E94960243
:100620006C8164FD31C0E881F9810684F785E02D95
:1006300042E063E0CE0109958BE496E40197F1F77F
:10064000E881F9810684F785E02D42E063E0CE0180
:10065000099503E512E0C8010197F1F7E881F981F6
:100660000684F785E02D42E063E0CE010995C801DC
:100670000197F1F7E881F9810684F785E02D42E0E2
:1006800062E0CE01099517C06062CE010E94EF02C0
:100690008BE496E40197F1F76C816062CE010E94D1
:1006A000EF0203E512E0C8010197F1F76C81606287
:1006B000CE010E94EF02C8010197F1F76C816062E0
:1006C000CE010E94EF028BEE90E00197F1F784E0FB
:1006D0008D836CE0CE010E94EF0261E0CE010E94AA
:1006E000EF028BE39FE10197F1F782E08E8366E0F2
:1006F000CE010E94EF02E881F9810484F585E02DA6
:100700006FEFCE01DF91CF911F910F910994089562
:10071000089585ED8093BC008091BC0084FDFCCFE2
:100720001092BC01089540915C01262F30E0240F07
:10073000311D21323105DCF42091BC012430C9F493
:10074000FC0180E090E0861758F430915C01219123
:10075000DC01A65CBE4FA30FB11D2C930196F3CF15
:1007600080915C01680F60935C0180E0089581E0F6
:10077000089582E00895089581E090E0309182012B
:1007800020918101321710F480E090E091958195DD
:10079000910908958091820190918101891730F427
:1007A0008F5F8093820180E090E008958FEF9FEF4C
:1007B00008958091810190E020918201821B91092E
:1007C0000895CF92DF92EF92FF920F931F93CF93F2
:1007D000DF937C01262F972F8A018091BD0188230A
:1007E00091F0C62FD72F6E01C40ED51ECC15DD0596
:1007F00071F06991D701ED91FC910190F081E02DAC
:10080000C7010995F3CF642F822F0E949303C8017B
:10081000DF91CF911F910F91FF90EF90DF90CF90DC
:100820000895CF93DF931F92CDB7DEB769832091F0
:10083000BD012223D1F02091E001203240F021E0DF
:1008400030E0FC013383228380E090E015C080918A
:10085000BE01E82FF0E0E154FE4F998190838F5F55
:100860008093BE018093E00105C061E0CE01019656
:100870000E94930381E090E00F90DF91CF91089563
:10088000FC0123812223B9F0918190956923608333
:10089000828191E09093BD018093DF011092BE01AF
:1008A0001092E0018EE792E00E9411040E948C00F9
:1008B000282F30E002C020E030E081E090E0232BE0
:1008C00011F080E090E00895EF92FF920F931F9354
:1008D000CF938C01FC01759684E0C0E060FF02C0FC
:1008E0009081C92B6695815031968111F7CF4130A7
:1008F00011F4F8014489F8018585C82BC42B7801CF
:10090000FEE0EF0EF11CF80162896C2BC7010E941A
:100910004004F801628960956C23C701CF911F9153
:100920000F91FF90EF900C9440040F931F93CF937F
:10093000DF93062F0F70423019F440E0602F10C093
:10094000142F262FEC0130E0B90184E075956795EE
:100950008A95E1F7CE010E946404412F602FCE01F9
:10096000DF91CF911F910F910C946404FC01848559
:100970008823A9F0218532852115310519F46111EB
:1009800006C007C02130310521F4611102C08587FE
:1009900001C015866585CF010E960C94400408951C
:1009A000EF92FF920F931F93CF93DF93EC01062FEB
:1009B000F42EE22E8B85888B109282011092810199
:1009C0001092BE011092E0011092BC0111E0109350
:1009D000BB011092960161E082E10E94410261E058
:1009E00083E10E9441028091B9008E7F8093B9001B
:1009F0008091B9008D7F8093B90088E48093B8001E
:100A000085E48093BC0088891093BD018093DF0149
:100A10001092BE011092E0010E948C0091E08111C1
:100A200090E0998B992329F08EE792E00E94CA0307
:100A30008E878989882339F01F861C8260E0CE0169
:100A40000E960E9440042E2D4F2D602FCE01DF9177
:100A5000CF911F910F91FF90EF900C94F7020895A2
:100A600080E090E008958F929F92AF92BF920F9393
:100A70001F93CF93DF93CDB7DEB7A1970FB6F8944E
:100A8000DEBF0FBECDBF19A2423008F44AE08E018E
:100A90000F5D1F4F842E912CA12CB12CA501940128
:100AA0000E945709E62FB901CA0101501109EA3025
:100AB00014F4E05D01C0E95CD801EC93232B242BF6
:100AC000252B61F70115110571F0F8010190002047
:100AD000E9F73197AF01401B510BB8018AE892E06A
:100AE0000E94E90002C080E090E0A1960FB6F89461
:100AF000DEBF0FBECDBFDF91CF911F910F91BF9091
:100B0000AF909F908F9008950E947F091F920F923F
:100B10000FB60F9211242F933F934F935F936F93D0
:100B20007F938F939F93AF93BF93EF93FF9381EE48
:100B300091E00E945B01FF91EF91BF91AF919F9176
:100B40008F917F916F915F914F913F912F910F9076
:100B50000FBE0F901F9018951F920F920FB60F9215
:100B600011242F938F939F93EF93FF93E091F101C3
:100B7000F091F2018081E091F701F091F80182FD9E
:100B800012C090818091FA018F5F8F732091FB01D9
:100B9000821751F0E091FA01F0E0EF51FE4F958F8E
:100BA0008093FA0101C08081FF91EF919F918F9115
:100BB0002F910F900FBE0F901F9018951F920F92BC
:100BC0000FB60F9211242F933F938F939F93AF9360
:100BD000BF938091880190918901A0918A01B09181
:100BE0008B013091830123E0230F2D3720F40196F0
:100BF000A11DB11D05C026E8230F0296A11DB11D40
:100C0000209383018093880190938901A0938A01A6
:100C1000B0938B018091840190918501A091860110
:100C2000B09187010196A11DB11D8093840190931D
:100C30008501A0938601B0938701BF91AF919F91E9
:100C40008F913F912F910F900FBE0F901F9018958D
:100C50001F920F920FB60F9211242F933F934F9331
:100C60005F936F937F938F939F93AF93BF93EF9314
:100C7000FF938091B900887F803609F49CC068F5A5
:100C8000883209F45BC090F4803109F454C038F420
:100C9000882309F4F6C0883009F44DC0F6C08831C5
:100CA00009F44CC0803209F45DC0EFC0803409F40F
:100CB00068C048F4803309F455C0883309F0E5C0B2
:100CC0008093BA01D8C0803509F44FC0883509F443
:100CD0005DC0883409F0D9C0D6C0883909F4C7C0CE
:100CE000A8F4883709F467C038F4883609F463C07B
:100CF000803709F460C0C9C0883809F4B8C08039A9
:100D000009F45FC0803809F0C0C05BC0803B09F4C3
:100D100086C038F4803A09F466C0883A09F47FC086
:100D2000B4C0803C09F4A7C0883C09F4A4C0883B47
:100D300009F48AC0AAC08091970110C09091B901AE
:100D40008091B801981770F5E091B90181E08E0F9C
:100D50008093B901F0E0E856FE4F80818093BB009C
:100D600085EC86C08093BA018EC0E091B90181E024
:100D70008E0F8093B9018091BB00F0E0E856FE4FE2
:100D800080839091B9018091B8016EC0E091B90162
:100D900081E08E0F8093B9018091BB00F0E0E856AE
:100DA000FE4F80838091BB0181116DC081E08093F3
:100DB000960184EA61C083E08093BC0110928001B7
:100DC000CFCF80918001803208F051C0E091800146
:100DD00081E08E0F809380018091BB00F0E0E05AAB
:100DE000FE4F8083BDCF85EC8093BC001092BC0188
:100DF00080918001803230F4E0918001F0E0E05A8F
:100E0000FE4F10826091800170E0E0915E01F091F0
:100E10005F0180E691E009951092800136C084E080
:100E20008093BC0110925D0110925C01E0915A0127
:100E3000F0915B01099580915C01811105C081E011
:100E400080935C0110923A01E0915D0181E08E0F88
:100E500080935D01F0E0E65CFE4F80818093BB00F3
:100E600090915D0180915C01981708F479CF85E835
:100E70008093BC000AC085EC8093BC001092BC013A
:100E800004C01092BA010E948903FF91EF91BF91B3
:100E9000AF919F918F917F916F915F914F913F9112
:100EA0002F910F900FBE0F901F901895E1EEF1E07B
:100EB0001382128288EE93E0A0E0B0E084839583F1
:100EC000A683B78326E031E03183208325EC30E030
:100ED0003587248724EC30E03787268720EC30E004
:100EE000318B208B21EC30E0338B228B22EC30E0F5
:100EF000358B248B26EC30E0378B268B118E128EAF
:100F0000138E148EEEE7F2E01382128284839583AF
:100F1000A683B78388E191E091838083EAE8F2E0D9
:100F2000138212828AE291E091838083108A8FEF8C
:100F300087871686118A87E283871486158612862C
:100F4000118684E0828B82E0838B81E0848B80E158
:100F5000858B80E2868B80E4878B80E8808F40E001
:100F600050E063E0CF010C94D002CF93DF93CDB774
:100F7000DEB728970FB6F894DEBF0FBECDBF7894CA
:100F800084B5826084BD84B5816084BD85B582608E
:100F900085BD85B5816085BD80916E00816080933F
:100FA0006E001092810080918100826080938100A8
:100FB00080918100816080938100809180008160B8
:100FC000809380008091B10084608093B100809113
:100FD000B00081608093B00080917A00846080933B
:100FE0007A0080917A00826080937A0080917A0002
:100FF000816080937A0080917A00806880937A0083
:101000001092C100E091F101F091F20182E0808341
:10101000E091ED01F091EE011082E091EF01F0918D
:10102000F0018FEC80831092F901E091F501F091CD
:10103000F60186E08083E091F301F091F401808174
:1010400080618083E091F301F091F40180818860F8
:101050008083E091F301F091F401808180688083C6
:10106000E091F301F091F40180818F7D808320E095
:1010700042E060E18AE892E00E94D00461E08AE800
:1010800092E00E94EF028BE39FE10197F1F7E0EB22
:10109000F0E02491ECE9F0E084918823C9F090E03D
:1010A000880F991FFC01E057FF4F45915491FC01B7
:1010B000EA57FF4FA591B4919FB7F894FA01308198
:1010C000822F809583238083EC91E22BEC939FBF4A
:1010D00010E404E184E5D82E90E1C92E20E5B22E7B
:1010E00039E0E32EF12C2FB7F8948091880190918C
:1010F0008901A0918A01B0918B012FBF8093920149
:1011000090939301A0939401B093950140918E0127
:1011100050918F0160919001709191013C014D01BE
:10112000641A750A860A970A28EE621623E0720688
:101130008104910408F45DC080938E0190938F0127
:10114000A0939001B09391011D821E830F83D886D6
:1011500019821A83CB82BC822091910281E02111F5
:1011600080E081953091920290E0303129F4243072
:1011700019F4E1E0F0E002C0E5E0F0E0EC0FFD1F63
:10118000E80FF91F608160688AE892E00E94EF0230
:1011900040908C0150908D01052C000C660877085A
:1011A00077FE14C0E0918A02F0918B020190F081E9
:1011B000E02D6DE28AE892E0099566277727CB015A
:1011C00064197509860997094AE003C04AE0C3011A
:1011D000B2010E94330520918C0130918D018091E4
:1011E000000190910101820F931F90938D018093D4
:1011F0008C0182E00E9418023C0164E170E080E012
:1012000090E00E9496026728D9F58FB7F894209055
:1012100088013090890140908A0150908B018FBFE6
:101220002FB7F8948091880190918901A0918A014B
:10123000B0918B012FBF82199309A409B509C297F8
:10124000A105B105E8F464E170E080E090E00E945F
:10125000960282E00E9418023C0164E170E080E0A6
:1012600090E00E9496026728D9F280910001909147
:10127000010191958195910990930101809300015D
:1012800080918C0190918D010A9724F010928D012C
:1012900010928C0180918C0190918D0197FF04C078
:1012A000F0928D01E0928C010E94E5011CCFA1E239
:1012B0001A2EAA1BBB1BFD010DC0AA1FBB1FEE1FD0
:1012C000FF1FA217B307E407F50720F0A21BB30B1B
:1012D000E40BF50B661F771F881F991F1A9469F797
:1012E00060957095809590959B01AC01BD01CF01F3
:1012F0000895EE0FFF1F0590F491E02D099481E011
:0C13000090E0F8940C948409F894FFCF5E
:10130C000100000000007C01E9001401C30145014B
:10131C0023013701000000001104E1033005BB0379
:10132C00D903CA03BC0300000000E402E900300545
:0A133C002F05D004D002B60495047A
:107E0000112484B714BE81FFF0D085E080938100F7
:107E100082E08093C00088E18093C10086E0809377
:107E2000C20080E18093C4008EE0C9D0259A86E02C
:107E300020E33CEF91E0309385002093840096BBD3
:107E4000B09BFECF1D9AA8958150A9F7CC24DD24C4
:107E500088248394B5E0AB2EA1E19A2EF3E0BF2EE7
:107E6000A2D0813461F49FD0082FAFD0023811F036
:107E7000013811F484E001C083E08DD089C08234E0
:107E800011F484E103C0853419F485E0A6D080C0E4
:107E9000853579F488D0E82EFF2485D0082F10E0AE
:107EA000102F00270E291F29000F111F8ED06801E7
:107EB0006FC0863521F484E090D080E0DECF843638
:107EC00009F040C070D06FD0082F6DD080E0C81688
:107ED00080E7D80618F4F601B7BEE895C0E0D1E017
:107EE00062D089930C17E1F7F0E0CF16F0E7DF06D8
:107EF00018F0F601B7BEE89568D007B600FCFDCFD4
:107F0000A601A0E0B1E02C9130E011968C91119780
:107F100090E0982F8827822B932B1296FA010C0160
:107F200087BEE89511244E5F5F4FF1E0A038BF0790
:107F300051F7F601A7BEE89507B600FCFDCF97BE46
:107F4000E89526C08437B1F42ED02DD0F82E2BD052
:107F50003CD0F601EF2C8F010F5F1F4F84911BD097
:107F6000EA94F801C1F70894C11CD11CFA94CF0C13
:107F7000D11C0EC0853739F428D08EE10CD085E9AC
:107F80000AD08FE07ACF813511F488E018D01DD067
:107F900080E101D065CF982F8091C00085FFFCCF94
:107FA0009093C60008958091C00087FFFCCF809118
:107FB000C00084FD01C0A8958091C6000895E0E648
:107FC000F0E098E1908380830895EDDF803219F02E
:107FD00088E0F5DFFFCF84E1DECF1F93182FE3DFCA
:107FE0001150E9F7F2DF1F91089580E0E8DFEE27F6
:047FF000FF270994CA
:027FFE00040479
:0400000300007E007B
:00000001FF