:100000000C945E000C9486000C9486000C94860080
:100010000C9486000C9486000C9486000C94860048
:100020000C9486000C9486000C9486000C94860038
:100030000C9486000C9486000C9486000C94860028
:100040000C946E030C9486000C943C030C941603E1
:100050000C9486000C9486000C9486000C94860008
:100060000C9486000C948600000000080002010039
:100070000003040700000000000000000000000072
:10008000250028002B0000000000240027002A0083
:10009000040404040404040402020202020203032E
:1000A0000303030301020408102040800102040836
:1000B0001020010204081020B803F00511241FBE0F
:1000C000CFEFD8E0DEBFCDBF22E0ACE4B1E001C0AD
:1000D0001D92AE34B207E1F711E0A0E0B1E0ECE62A
:1000E000FCE002C005900D92AC34B107D9F710E0E6
:1000F000CDE5D0E004C02197FE010E941E06CC355C
:10010000D107C9F70E9421040C9429060C94000021
:1001100090E0FC01EC55FF4F2491FC01E057FF4FAC
:100120008491882399F090E0880F991FFC01EA5789
:10013000FF4FA591B491FC01E458FF4F8591949134
:100140008FB7F894EC91E22BEC938FBF0895EDE517
:10015000F1E0A089B18982E08C93A485B5851C92D9
:10016000A685B7858FEC8C93108EA489B58986E01F
:100170008C93A289B3898C9180618C93A289B38975
:100180008C9188608C93A289B3898C9180688C93C0
:100190000288F389E02D80818F7D80830895CF923E
:1001A000DF92EF92FF920F931F93CF93DF936C0137
:1001B0007A018B01C0E0D0E0CE15DF0589F0D801CF
:1001C0006D918D01D601ED91FC910190F081E02DB2
:1001D000C6010995892B11F47E0102C02196ECCF4E
:1001E000C701DF91CF911F910F91FF90EF90DF90AA
:1001F000CF900895089580E090E00895FC01538D1C
:10020000448D252F30E0842F90E0821B930B5417F0
:1002100010F0CF96089501970895FC01918D828D7D
:10022000981761F0828DDF01A80FB11D5D968C914A
:10023000928D9F5F9F73928F90E008958FEF9FEF55
:100240000895FC01918D828D981731F0828DE80F11
:10025000F11D858D90E008958FEF9FEF0895FC01CB
:10026000918D228D892F90E0805C9F4F821B910998
:100270008F73992708958DE591E00E942F0121E069
:10028000892B09F420E0822F0895FC01848DDF0181
:10029000A80FB11DA35ABF4F2C91848D90E00196F9
:1002A0008F739927848FA689B7892C93A089B189E8
:1002B0008C9180648C93938D848D981306C00288F2
:1002C000F389E02D80818F7D80830895EF92FF92E6
:1002D0000F931F93CF93DF93EC0181E0888F9B8D69
:1002E0008C8D981305C0E889F989808185FD24C02B
:1002F000F62E0B8D10E00F5F1F4F0F731127E02EAE
:100300008C8DE8120CC00FB607FCFACFE889F9898A
:10031000808185FFF5CFCE010E944501F1CF8B8D05
:10032000FE01E80FF11DE35AFF4FF0820B8FEA89BF
:10033000FB898081806207C0EE89FF896083E8893C
:10034000F98980818064808381E090E0DF91CF91A2
:100350001F910F91FF90EF900895CF93DF93EC01E1
:10036000888D8823C9F0EA89FB89808185FD05C0D5
:10037000A889B9898C9186FD0FC00FB607FCF5CF0F
:10038000808185FFF2CFA889B9898C9185FFEDCF57
:10039000CE010E944501E7CFDF91CF91089580E023
:1003A00090E0892B29F00E943B0181110C94000000
:1003B000089590E0FC01E859FF4F3491FC01EC55A1
:1003C000FF4F2491FC01E057FF4FE491EE2309F425
:1003D0003BC0332339F1333091F038F43130A9F098
:1003E000323001F584B58F7D12C0373091F038304E
:1003F000A1F03430B9F4809180008F7D03C08091EA
:1004000080008F77809380000DC084B58F7784BD86
:1004100009C08091B0008F7703C08091B0008F7DBC
:100420008093B000F0E0EE0FFF1FE458FF4FA5915E
:10043000B4918FB7F894EC91611103C020952E23ED
:1004400001C02E2B2C938FBF08951F93CF93DF9362
:10045000182FEB010E948800209711F460E004C07F
:10046000CF3FD10539F461E0812FDF91CF911F910A
:100470000C94D901E12FF0E0E859FF4FE491E3300B
:10048000F9F048F4E130B9F0E230A1F584B58062CA
:1004900084BDC8BD34C0E730E9F0E83019F1E4307C
:1004A00049F580918000806280938000D0938B001A
:1004B000C0938A0024C084B5806884BDC7BD1FC0B6
:1004C00080918000806880938000D0938900C093E1
:1004D000880015C08091B00080688093B000C09300
:1004E000B3000DC08091B00080628093B000C093D3
:1004F000B40005C0C038D1050CF0B5CFAFCFDF9147
:10050000CF911F9108952FB7F89460915101709188
:10051000520180915301909154012FBF08958F9201
:100520009F92AF92BF92CF92DF92EF92FF926B01B8
:100530007C010E9483024B015C01C60ED71EE81E9F
:10054000F91E0E948302681579058A059B0528F02B
:10055000C616D706E806F906A0F7FF90EF90DF90E1
:10056000CF90BF90AF909F908F9008950E942406E7
:100570006115710579F0FB0101900020E9F73197D1
:10058000AF01461B570BDC01ED91FC910280F3811A
:10059000E02D099480E090E008954F925F926F9271
:1005A0007F92EF92FF920F931F93CF93DF93CDB77C
:1005B000DEB7A1970FB6F894DEBF0FBECDBF7C01AA
:1005C000FA01CB0119A2223008F42AE08E010F5D56
:1005D0001F4F422E512C612C712CBF01A30192019F
:1005E0000E94FC05F901CA01015011096A3014F496
:1005F000605D01C0695CD8016C93232B242B252BF3
:1006000061F7B801C7010E94B802A1960FB6F8942D
:10061000DEBF0FBECDBFDF91CF911F910F91FF9035
:10062000EF907F906F905F904F9008951F920F9280
:100630000FB60F9211242F933F934F935F936F93B5
:100640007F938F939F93AF93BF93EF93FF938DE52A
:1006500091E00E944501FF91EF91BF91AF919F9171
:100660008F917F916F915F914F913F912F910F905B
:100670000FBE0F901F9018951F920F920FB60F92FA
:1006800011242F938F939F93EF93FF93E0916D012C
:10069000F0916E018081E0917301F091740182FD0F
:1006A00012C09081809176018F5F8F7320917701C6
:1006B000821751F0E0917601F0E0E35AFE4F958FFA
:1006C0008093760101C08081FF91EF919F918F917E
:1006D0002F910F900FBE0F901F9018951F920F92A1
:1006E0000FB60F9211242F933F938F939F93AF9345
:1006F000BF938091510190915201A0915301B0910B
:1007000054013091500123E0230F2D3720F401963E
:10071000A11DB11D05C026E8230F0296A11DB11D24
:10072000209350018093510190935201A093530163
:10073000B093540180914C0190914D01A0914E01D4
:10074000B0914F010196A11DB11D80934C01909372
:100750004D01A0934E01B0934F01BF91AF919F9176
:100760008F913F912F910F900FBE0F901F90189572
:10077000CF93DF93EDE5F1E01382128288EE93E0F0
:10078000A0E0B0E084839583A683B78384E091E002
:100790009183808385EC90E09587848784EC90E05A
:1007A0009787868780EC90E0918B808B81EC90E03E
:1007B000938B828B82EC90E0958B848B86EC90E01F
:1007C000978B868B118E128E138E148EEAEFF1E0CA
:1007D0001682178210861186128613861486158655
:1007E00016861786108A118A128A138A148A158A25
:1007F000C2E4D2E0198618861F821E828FEF8B8793
:100800008A8788E0888389E089838AE08A838BE00D
:100810008B8385E08C8386E08D8388E00E9488004E
:1008200089810E9488008A810E9488008B810E94B1
:1008300088008C810E9488008D81DF91CF910C947B
:100840008800789484B5826084BD84B5816084BD5D
:1008500085B5826085BD85B5816085BD80916E005E
:10086000816080936E00109281008091810082608F
:1008700080938100809181008160809381008091CC
:1008800080008160809380008091B10084608093BB
:10089000B1008091B00081608093B00080917A00B7
:1008A000846080937A0080917A00826080937A00DD
:1008B00080917A00816080937A0080917A008068CC
:1008C00080937A001092C10010923E0210923F0273
:1008D00010924002109241021092FC011092FD0110
:1008E0001092FE011092FF0168EB7BE080E090E047
:1008F0000E948F028DE591E090933D0280933C022F
:100900000E94A7000E9483026093FC017093FD0186
:100910008093FE019093FF0162E171E080913C02BF
:1009200090913D020E94B8026AE070E080E090E0A1
:100930000E948F0281E0809310020E94A70084EF42
:10094000882E99249394A12CB12CC1E00E9483029B
:10095000672B682B692B41F40E948302623071057A
:100960008105910508F40BC10E948302609359012F
:1009700070935A0180935B0190935C01C090550184
:10098000D0905601E0905701F09058016C157D050C
:100990008E059F0540F46093550170935601809336
:1009A000570190935801C0905501D0905601E090A6
:1009B0005701F09058019B01AC012C193D094E09DB
:1009C0005F0969017A013AEFC316D104E104F10429
:1009D00008F4D5C060935501709356018093570178
:1009E000909358018092080290920902A0920A0204
:1009F000B0920B0210920C0210920D0210920E0295
:100A000010920F028091000290910102A0910202C7
:100A1000B09103028093040290930502A093060212
:100A2000B09307020E948302609300027093010258
:100A300080930202909303020E9483026093FC0160
:100A40007093FD018093FE019093FF010E94830249
:100A50006B017C0164E271E080913C0290913D0267
:100A60000E94B8022AE041E050E060E070E080912E
:100A70003C0290913D020E94CD026BE271E08091B8
:100A80003C0290913D020E94B8022AE0B701A60103
:100A900080913C0290913D020E94CD026DE271E096
:100AA00080913C0290913D020E94B8028091000228
:100AB00090910102A0910202B0910302B701A60138
:100AC000481B590B6A0B7B0B2AE080913C029091EA
:100AD0003D020E94CD026DE271E080913C02909156
:100AE0003D020E94B80240910002509101026091C3
:100AF0000202709103028091040290910502A0917C
:100B00000602B0910702481B590B6A0B7B0B2AE0C7
:100B100080913C0290913D020E94CD026FE271E013
:100B200080913C0290913D020E94B8020E94830293
:100B3000AB01BC012AE080913C0290913D020E94F1
:100B4000CD02E0903C02F0903D0261E371E0C7010C
:100B50000E94B80261E271E0C7010E94B80262E03F
:100B600070E080E090E00E948F020E948302609318
:100B7000000270930102809302029093030210928C
:100B80004A0210924802C0934B02C09349026091FE
:100B90004C0270E0809146020E94250260914D0255
:100BA00070E0809147020E94250260914802809186
:100BB00042020E94D90160914902809143020E9441
:100BC000D90160914A02809144020E94D90160914A
:100BD0004B02809145020E94D9010E94CF01B6CEFE
:100BE00068E371E08DE591E00E94B80261E271E096
:100BF0008DE591E00C94B802A1E21A2EAA1BBB1B52
:100C0000FD010DC0AA1FBB1FEE1FFF1FA217B307D8
:100C1000E407F50720F0A21BB30BE40BF50B661FEE
:100C2000771F881F991F1A9469F7609570958095B2
:100C300090959B01AC01BD01CF010895EE0FFF1F00
:100C40000590F491E02D099481E090E0F8940C94E3
:100C5000290610E0CDE5D0E004C0FE010E941E068A
:0C0C60002196CE35D107C9F7F894FFCFDC
:100C6C00000000006601CF00FE00AD012F010D0158
:100C7C002101564D4450565F317C315F564D4450E6
:100C8C00560D0A00564D4450455F003A323A007CEE
:100C9C00005F564D44504500416374696F6E3A3A9B
:0C0CAC007E416374696F6E28293B0000D4
:107E0000112484B714BE81FFF0D085E080938100F7
:107E100082E08093C00088E18093C10086E0809377
:107E2000C20080E18093C4008EE0C9D0259A86E02C
:107E300020E33CEF91E0309385002093840096BBD3
:107E4000B09BFECF1D9AA8958150A9F7CC24DD24C4
:107E500088248394B5E0AB2EA1E19A2EF3E0BF2EE7
:107E6000A2D0813461F49FD0082FAFD0023811F036
:107E7000013811F484E001C083E08DD089C08234E0
:107E800011F484E103C0853419F485E0A6D080C0E4
:107E9000853579F488D0E82EFF2485D0082F10E0AE
:107EA000102F00270E291F29000F111F8ED06801E7
:107EB0006FC0863521F484E090D080E0DECF843638
:107EC00009F040C070D06FD0082F6DD080E0C81688
:107ED00080E7D80618F4F601B7BEE895C0E0D1E017
:107EE00062D089930C17E1F7F0E0CF16F0E7DF06D8
:107EF00018F0F601B7BEE89568D007B600FCFDCFD4
:107F0000A601A0E0B1E02C9130E011968C91119780
:107F100090E0982F8827822B932B1296FA010C0160
:107F200087BEE89511244E5F5F4FF1E0A038BF0790
:107F300051F7F601A7BEE89507B600FCFDCF97BE46
:107F4000E89526C08437B1F42ED02DD0F82E2BD052
:107F50003CD0F601EF2C8F010F5F1F4F84911BD097
:107F6000EA94F801C1F70894C11CD11CFA94CF0C13
:107F7000D11C0EC0853739F428D08EE10CD085E9AC
:107F80000AD08FE07ACF813511F488E018D01DD067
:107F900080E101D065CF982F8091C00085FFFCCF94
:107FA0009093C60008958091C00087FFFCCF809118
:107FB000C00084FD01C0A8958091C6000895E0E648
:107FC000F0E098E1908380830895EDDF803219F02E
:107FD00088E0F5DFFFCF84E1DECF1F93182FE3DFCA
:107FE0001150E9F7F2DF1F91089580E0E8DFEE27F6
:047FF000FF270994CA
:027FFE00040479
:0400000300007E007B
:00000001FF